{
  "contractName": "ownable",
  "abi": [
    {
      "inputs": [],
      "payable": false,
      "stateMutability": "nonpayable",
      "type": "constructor"
    },
    {
      "anonymous": false,
      "inputs": [
        {
          "indexed": true,
          "internalType": "address",
          "name": "Admin_address",
          "type": "address"
        }
      ],
      "name": "AdminAdded",
      "type": "event"
    },
    {
      "anonymous": false,
      "inputs": [
        {
          "indexed": true,
          "internalType": "address",
          "name": "Admin_address",
          "type": "address"
        }
      ],
      "name": "AdminRemoved",
      "type": "event"
    },
    {
      "anonymous": false,
      "inputs": [
        {
          "indexed": true,
          "internalType": "address",
          "name": "from",
          "type": "address"
        },
        {
          "indexed": true,
          "internalType": "address",
          "name": "to",
          "type": "address"
        }
      ],
      "name": "ownerChanges",
      "type": "event"
    },
    {
      "constant": true,
      "inputs": [
        {
          "internalType": "address",
          "name": "",
          "type": "address"
        }
      ],
      "name": "isAdmin",
      "outputs": [
        {
          "internalType": "bool",
          "name": "",
          "type": "bool"
        }
      ],
      "payable": false,
      "stateMutability": "view",
      "type": "function"
    },
    {
      "constant": true,
      "inputs": [],
      "name": "owner",
      "outputs": [
        {
          "internalType": "address",
          "name": "",
          "type": "address"
        }
      ],
      "payable": false,
      "stateMutability": "view",
      "type": "function"
    },
    {
      "constant": false,
      "inputs": [
        {
          "internalType": "address",
          "name": "_owner",
          "type": "address"
        }
      ],
      "name": "setOwner",
      "outputs": [
        {
          "internalType": "bool",
          "name": "success",
          "type": "bool"
        }
      ],
      "payable": false,
      "stateMutability": "nonpayable",
      "type": "function"
    },
    {
      "constant": false,
      "inputs": [
        {
          "internalType": "address",
          "name": "_address",
          "type": "address"
        }
      ],
      "name": "addAdmin",
      "outputs": [
        {
          "internalType": "bool",
          "name": "success",
          "type": "bool"
        }
      ],
      "payable": false,
      "stateMutability": "nonpayable",
      "type": "function"
    },
    {
      "constant": false,
      "inputs": [
        {
          "internalType": "address",
          "name": "_address",
          "type": "address"
        }
      ],
      "name": "removeAdmin",
      "outputs": [
        {
          "internalType": "bool",
          "name": "success",
          "type": "bool"
        }
      ],
      "payable": false,
      "stateMutability": "nonpayable",
      "type": "function"
    }
  ],
  "bytecode": "0x608060405234801561001057600080fd5b50336000806101000a81548173ffffffffffffffffffffffffffffffffffffffff021916908373ffffffffffffffffffffffffffffffffffffffff16021790555060018060003373ffffffffffffffffffffffffffffffffffffffff1673ffffffffffffffffffffffffffffffffffffffff16815260200190815260200160002060006101000a81548160ff0219169083151502179055506109de806100b76000396000f3fe608060405234801561001057600080fd5b50600436106100575760003560e01c806313af40351461005c5780631785f53c1461008c57806324d7806c146100bc57806370480275146100ec5780638da5cb5b1461011c575b600080fd5b610076600480360361007191908101906106ec565b61013a565b604051610083919061089a565b60405180910390f35b6100a660048036036100a191908101906106ec565b6102dd565b6040516100b3919061089a565b60405180910390f35b6100d660048036036100d191908101906106ec565b6104c6565b6040516100e3919061089a565b60405180910390f35b610106600480360361010191908101906106ec565b6104e6565b604051610113919061089a565b60405180910390f35b6101246106b2565b604051610131919061087f565b60405180910390f35b60003373ffffffffffffffffffffffffffffffffffffffff166000809054906101000a900473ffffffffffffffffffffffffffffffffffffffff1673ffffffffffffffffffffffffffffffffffffffff16146101cb576040517f08c379a00000000000000000000000000000000000000000000000000000000081526004016101c2906108f5565b60405180910390fd5b8173ffffffffffffffffffffffffffffffffffffffff163373ffffffffffffffffffffffffffffffffffffffff16141561023a576040517f08c379a0000000000000000000000000000000000000000000000000000000008152600401610231906108d5565b60405180910390fd5b816000806101000a81548173ffffffffffffffffffffffffffffffffffffffff021916908373ffffffffffffffffffffffffffffffffffffffff1602179055508173ffffffffffffffffffffffffffffffffffffffff163373ffffffffffffffffffffffffffffffffffffffff167f5e89811b295d4a5353ccf3f888992d7bb4a7e394ee0f8a3c36303f2f4674cba260405160405180910390a360019050919050565b600060011515600160003373ffffffffffffffffffffffffffffffffffffffff1673ffffffffffffffffffffffffffffffffffffffff16815260200190815260200160002060009054906101000a900460ff16151514610372576040517f08c379a000000000000000000000000000000000000000000000000000000000815260040161036990610915565b60405180910390fd5b6000809054906101000a900473ffffffffffffffffffffffffffffffffffffffff1673ffffffffffffffffffffffffffffffffffffffff163373ffffffffffffffffffffffffffffffffffffffff1614156103cc57600080fd5b600160008373ffffffffffffffffffffffffffffffffffffffff1673ffffffffffffffffffffffffffffffffffffffff16815260200190815260200160002060009054906101000a900460ff1661042257600080fd5b6000600160008473ffffffffffffffffffffffffffffffffffffffff1673ffffffffffffffffffffffffffffffffffffffff16815260200190815260200160002060006101000a81548160ff0219169083151502179055508173ffffffffffffffffffffffffffffffffffffffff167fa3b62bc36326052d97ea62d63c3d60308ed4c3ea8ac079dd8499f1e9c4f80c0f60405160405180910390a260019050919050565b60016020528060005260406000206000915054906101000a900460ff1681565b600060011515600160003373ffffffffffffffffffffffffffffffffffffffff1673ffffffffffffffffffffffffffffffffffffffff16815260200190815260200160002060009054906101000a900460ff1615151461057b576040517f08c379a000000000000000000000000000000000000000000000000000000000815260040161057290610915565b60405180910390fd5b60011515600160008473ffffffffffffffffffffffffffffffffffffffff1673ffffffffffffffffffffffffffffffffffffffff16815260200190815260200160002060009054906101000a900460ff161515141561060f576040517f08c379a0000000000000000000000000000000000000000000000000000000008152600401610606906108b5565b60405180910390fd5b60018060008473ffffffffffffffffffffffffffffffffffffffff1673ffffffffffffffffffffffffffffffffffffffff16815260200190815260200160002060006101000a81548160ff0219169083151502179055508173ffffffffffffffffffffffffffffffffffffffff167f44d6d25963f097ad14f29f06854a01f575648a1ef82f30e562ccd3889717e33960405160405180910390a260019050919050565b6000809054906101000a900473ffffffffffffffffffffffffffffffffffffffff1681565b6000813590506106e681610984565b92915050565b6000602082840312156106fe57600080fd5b600061070c848285016106d7565b91505092915050565b61071e81610946565b82525050565b61072d81610958565b82525050565b6000610740601583610935565b91507f416c726561647920796f75206172652061646d696e00000000000000000000006000830152602082019050919050565b6000610780601583610935565b91507f416c726561647920796f7520617265206f776e657200000000000000000000006000830152602082019050919050565b60006107c0602a83610935565b91507f4f6e6c79206f776e65722069732068617665207468652061636365737320746f60008301527f20646f20616374696f6e000000000000000000000000000000000000000000006020830152604082019050919050565b6000610826602a83610935565b91507f4f6e6c792061646d696e2069732068617665207468652061636365737320746f60008301527f20646f20616374696f6e000000000000000000000000000000000000000000006020830152604082019050919050565b60006020820190506108946000830184610715565b92915050565b60006020820190506108af6000830184610724565b92915050565b600060208201905081810360008301526108ce81610733565b9050919050565b600060208201905081810360008301526108ee81610773565b9050919050565b6000602082019050818103600083015261090e816107b3565b9050919050565b6000602082019050818103600083015261092e81610819565b9050919050565b600082825260208201905092915050565b600061095182610964565b9050919050565b60008115159050919050565b600073ffffffffffffffffffffffffffffffffffffffff82169050919050565b61098d81610946565b811461099857600080fd5b5056fea365627a7a723158205b48608d15458bc22ae12ba10e86595b9ee4ad304e4b387b977cb60df9ab59306c6578706572696d656e74616cf564736f6c63430005100040",
  "source": "pragma solidity >=0.4.22 <0.7.0;\r\npragma experimental ABIEncoderV2;\r\n\r\ncontract ownable {\r\n    address public owner;\r\n    mapping(address => bool) public isAdmin;\r\n    event ownerChanges(address indexed from, address indexed to);\r\n    event AdminAdded(address indexed Admin_address);\r\n    event AdminRemoved(address indexed Admin_address);\r\n\r\n    constructor() public {\r\n        owner = msg.sender;\r\n        isAdmin[msg.sender] = true;\r\n    }\r\n\r\n    modifier onlyOwner() {\r\n        require(\r\n            owner == msg.sender,\r\n            \"Only owner is have the access to do action\"\r\n        );\r\n        _;\r\n    }\r\n\r\n    modifier OnlyAdmin() {\r\n        require(\r\n            isAdmin[msg.sender] == true,\r\n            \"Only admin is have the access to do action\"\r\n        );\r\n        _;\r\n    }\r\n\r\n    function setOwner(address _owner) public onlyOwner returns (bool success) {\r\n        require(msg.sender != _owner, \"Already you are owner\");\r\n        owner = _owner;\r\n        emit ownerChanges(msg.sender, _owner);\r\n        return true;\r\n    }\r\n\r\n    function addAdmin(address _address)\r\n        public\r\n        OnlyAdmin\r\n        returns (bool success)\r\n    {\r\n        require(isAdmin[_address] != true, \"Already you are admin\");\r\n        isAdmin[_address] = true;\r\n        emit AdminAdded(_address);\r\n        return true;\r\n    }\r\n\r\n    function removeAdmin(address _address)\r\n        public\r\n        OnlyAdmin\r\n        returns (bool success)\r\n    {\r\n        require(msg.sender != owner);\r\n        require(isAdmin[_address]);\r\n        isAdmin[_address] = false;\r\n        emit AdminRemoved(_address);\r\n        return true;\r\n    }\r\n}\r\n",
  "sourcePath": "G:\\GP\\Projects\\Medical Record\\contracts\\ownable.sol",
  "compiler": {
    "name": "solc",
    "version": "0.5.16+commit.9c3226ce.Emscripten.clang"
  },
  "schemaVersion": "3.4.3",
  "updatedAt": "2021-09-21T13:49:56.157Z",
  "networkType": "ethereum",
  "devdoc": {
    "methods": {}
  },
  "userdoc": {
    "methods": {}
  }
}