{
  "contractName": "Patient",
  "abi": [
    {
      "anonymous": false,
      "inputs": [
        {
          "indexed": true,
          "internalType": "address",
          "name": "Admin_address",
          "type": "address"
        }
      ],
      "name": "AdminAdded",
      "type": "event"
    },
    {
      "anonymous": false,
      "inputs": [
        {
          "indexed": true,
          "internalType": "address",
          "name": "Admin_address",
          "type": "address"
        }
      ],
      "name": "AdminRemoved",
      "type": "event"
    },
    {
      "anonymous": false,
      "inputs": [
        {
          "indexed": true,
          "internalType": "address",
          "name": "from",
          "type": "address"
        },
        {
          "indexed": true,
          "internalType": "address",
          "name": "to",
          "type": "address"
        }
      ],
      "name": "ownerChanges",
      "type": "event"
    },
    {
      "constant": false,
      "inputs": [
        {
          "internalType": "address",
          "name": "_address",
          "type": "address"
        }
      ],
      "name": "addAdmin",
      "outputs": [
        {
          "internalType": "bool",
          "name": "success",
          "type": "bool"
        }
      ],
      "payable": false,
      "stateMutability": "nonpayable",
      "type": "function"
    },
    {
      "constant": false,
      "inputs": [
        {
          "internalType": "string",
          "name": "_hospitalName",
          "type": "string"
        },
        {
          "internalType": "string",
          "name": "_hospitalLocation",
          "type": "string"
        },
        {
          "internalType": "address",
          "name": "_hospitalAddress",
          "type": "address"
        }
      ],
      "name": "addHospital",
      "outputs": [],
      "payable": false,
      "stateMutability": "nonpayable",
      "type": "function"
    },
    {
      "constant": true,
      "inputs": [
        {
          "internalType": "address",
          "name": "_address",
          "type": "address"
        }
      ],
      "name": "getHospital",
      "outputs": [
        {
          "internalType": "uint256",
          "name": "id",
          "type": "uint256"
        },
        {
          "internalType": "string",
          "name": "hospitalName",
          "type": "string"
        },
        {
          "internalType": "string",
          "name": "hospitalLocation",
          "type": "string"
        },
        {
          "internalType": "address",
          "name": "hospitalAddress",
          "type": "address"
        },
        {
          "internalType": "bool",
          "name": "isApproved",
          "type": "bool"
        }
      ],
      "payable": false,
      "stateMutability": "view",
      "type": "function"
    },
    {
      "constant": true,
      "inputs": [],
      "name": "getHospitalCount",
      "outputs": [
        {
          "internalType": "uint256",
          "name": "",
          "type": "uint256"
        }
      ],
      "payable": false,
      "stateMutability": "view",
      "type": "function"
    },
    {
      "constant": true,
      "inputs": [
        {
          "internalType": "uint256",
          "name": "",
          "type": "uint256"
        }
      ],
      "name": "hospitalList",
      "outputs": [
        {
          "internalType": "address",
          "name": "",
          "type": "address"
        }
      ],
      "payable": false,
      "stateMutability": "view",
      "type": "function"
    },
    {
      "constant": true,
      "inputs": [
        {
          "internalType": "address",
          "name": "",
          "type": "address"
        }
      ],
      "name": "isAdmin",
      "outputs": [
        {
          "internalType": "bool",
          "name": "",
          "type": "bool"
        }
      ],
      "payable": false,
      "stateMutability": "view",
      "type": "function"
    },
    {
      "constant": true,
      "inputs": [],
      "name": "owner",
      "outputs": [
        {
          "internalType": "address",
          "name": "",
          "type": "address"
        }
      ],
      "payable": false,
      "stateMutability": "view",
      "type": "function"
    },
    {
      "constant": true,
      "inputs": [
        {
          "internalType": "uint256",
          "name": "",
          "type": "uint256"
        }
      ],
      "name": "patientList",
      "outputs": [
        {
          "internalType": "address",
          "name": "",
          "type": "address"
        }
      ],
      "payable": false,
      "stateMutability": "view",
      "type": "function"
    },
    {
      "constant": true,
      "inputs": [],
      "name": "pindex",
      "outputs": [
        {
          "internalType": "uint256",
          "name": "",
          "type": "uint256"
        }
      ],
      "payable": false,
      "stateMutability": "view",
      "type": "function"
    },
    {
      "constant": false,
      "inputs": [
        {
          "internalType": "address",
          "name": "_address",
          "type": "address"
        }
      ],
      "name": "removeAdmin",
      "outputs": [
        {
          "internalType": "bool",
          "name": "success",
          "type": "bool"
        }
      ],
      "payable": false,
      "stateMutability": "nonpayable",
      "type": "function"
    },
    {
      "constant": false,
      "inputs": [
        {
          "internalType": "address",
          "name": "_owner",
          "type": "address"
        }
      ],
      "name": "setOwner",
      "outputs": [
        {
          "internalType": "bool",
          "name": "success",
          "type": "bool"
        }
      ],
      "payable": false,
      "stateMutability": "nonpayable",
      "type": "function"
    },
    {
      "constant": false,
      "inputs": [
        {
          "internalType": "address",
          "name": "_addr",
          "type": "address"
        },
        {
          "internalType": "string",
          "name": "_hname",
          "type": "string"
        },
        {
          "internalType": "string",
          "name": "_reason",
          "type": "string"
        },
        {
          "internalType": "string",
          "name": "_admittedOn",
          "type": "string"
        },
        {
          "internalType": "string",
          "name": "_dischargedOn",
          "type": "string"
        },
        {
          "internalType": "string",
          "name": "_ipfs",
          "type": "string"
        }
      ],
      "name": "addRecord",
      "outputs": [],
      "payable": false,
      "stateMutability": "nonpayable",
      "type": "function"
    },
    {
      "constant": false,
      "inputs": [
        {
          "internalType": "string",
          "name": "_name",
          "type": "string"
        },
        {
          "internalType": "string",
          "name": "_phone",
          "type": "string"
        },
        {
          "internalType": "string",
          "name": "_gender",
          "type": "string"
        },
        {
          "internalType": "string",
          "name": "_dob",
          "type": "string"
        },
        {
          "internalType": "string",
          "name": "_bloodgroup",
          "type": "string"
        },
        {
          "internalType": "string",
          "name": "_allergies",
          "type": "string"
        }
      ],
      "name": "addPatient",
      "outputs": [],
      "payable": false,
      "stateMutability": "nonpayable",
      "type": "function"
    },
    {
      "constant": true,
      "inputs": [
        {
          "internalType": "address",
          "name": "_addr",
          "type": "address"
        }
      ],
      "name": "getPatientDetails",
      "outputs": [
        {
          "internalType": "string",
          "name": "_name",
          "type": "string"
        },
        {
          "internalType": "string",
          "name": "_phone",
          "type": "string"
        },
        {
          "internalType": "string",
          "name": "_gender",
          "type": "string"
        },
        {
          "internalType": "string",
          "name": "_dob",
          "type": "string"
        },
        {
          "internalType": "string",
          "name": "_bloodgroup",
          "type": "string"
        },
        {
          "internalType": "string",
          "name": "_allergies",
          "type": "string"
        }
      ],
      "payable": false,
      "stateMutability": "view",
      "type": "function"
    },
    {
      "constant": true,
      "inputs": [
        {
          "internalType": "address",
          "name": "_addr",
          "type": "address"
        }
      ],
      "name": "getPatientRecords",
      "outputs": [
        {
          "internalType": "string[]",
          "name": "_hname",
          "type": "string[]"
        },
        {
          "internalType": "string[]",
          "name": "_reason",
          "type": "string[]"
        },
        {
          "internalType": "string[]",
          "name": "_admittedOn",
          "type": "string[]"
        },
        {
          "internalType": "string[]",
          "name": "_dischargedOn",
          "type": "string[]"
        },
        {
          "internalType": "string[]",
          "name": "ipfs",
          "type": "string[]"
        }
      ],
      "payable": false,
      "stateMutability": "view",
      "type": "function"
    },
    {
      "constant": false,
      "inputs": [
        {
          "internalType": "address",
          "name": "_addr",
          "type": "address"
        }
      ],
      "name": "addAuth",
      "outputs": [
        {
          "internalType": "bool",
          "name": "success",
          "type": "bool"
        }
      ],
      "payable": false,
      "stateMutability": "nonpayable",
      "type": "function"
    },
    {
      "constant": false,
      "inputs": [
        {
          "internalType": "address",
          "name": "_addr",
          "type": "address"
        }
      ],
      "name": "revokeAuth",
      "outputs": [
        {
          "internalType": "bool",
          "name": "success",
          "type": "bool"
        }
      ],
      "payable": false,
      "stateMutability": "nonpayable",
      "type": "function"
    },
    {
      "constant": false,
      "inputs": [
        {
          "internalType": "address",
          "name": "_from",
          "type": "address"
        },
        {
          "internalType": "address",
          "name": "_to",
          "type": "address"
        }
      ],
      "name": "addAuthFromTo",
      "outputs": [
        {
          "internalType": "bool",
          "name": "success",
          "type": "bool"
        }
      ],
      "payable": false,
      "stateMutability": "nonpayable",
      "type": "function"
    },
    {
      "constant": false,
      "inputs": [
        {
          "internalType": "address",
          "name": "_from",
          "type": "address"
        },
        {
          "internalType": "address",
          "name": "_to",
          "type": "address"
        }
      ],
      "name": "removeAuthFromTo",
      "outputs": [
        {
          "internalType": "bool",
          "name": "success",
          "type": "bool"
        }
      ],
      "payable": false,
      "stateMutability": "nonpayable",
      "type": "function"
    },
    {
      "constant": true,
      "inputs": [],
      "name": "getPatientCount",
      "outputs": [
        {
          "internalType": "uint256",
          "name": "",
          "type": "uint256"
        }
      ],
      "payable": false,
      "stateMutability": "view",
      "type": "function"
    }
  ],
  "bytecode": "0x60806040526000600655336000806101000a81548173ffffffffffffffffffffffffffffffffffffffff021916908373ffffffffffffffffffffffffffffffffffffffff16021790555060018060003373ffffffffffffffffffffffffffffffffffffffff1673ffffffffffffffffffffffffffffffffffffffff16815260200190815260200160002060006101000a81548160ff021916908315150217905550614264806100af6000396000f3fe608060405234801561001057600080fd5b506004361061012c5760003560e01c8063a4f3cc23116100ad578063e0d23e1111610071578063e0d23e11146103ab578063ef264a21146103db578063efe2ccc1146103f7578063f8171dfa1461042c578063fe45a81d1461045c5761012c565b8063a4f3cc23146102dd578063babb1d41146102f9578063c190665b14610329578063c49b09b514610347578063c82412b91461037b5761012c565b806351d9ab38116100f457806351d9ab38146102255780635422224e146102415780635658e43b14610271578063704802751461028f5780638da5cb5b146102bf5761012c565b80630c3c45a01461013157806313af4035146101615780631785f53c1461019157806318bd4847146101c157806324d7806c146101f5575b600080fd5b61014b60048036036101469190810190613589565b61047a565b6040516101589190613dcc565b60405180910390f35b61017b60048036036101769190810190613560565b6106d0565b6040516101889190613dcc565b60405180910390f35b6101ab60048036036101a69190810190613560565b610873565b6040516101b89190613dcc565b60405180910390f35b6101db60048036036101d69190810190613560565b610a5c565b6040516101ec959493929190613d56565b60405180910390f35b61020f600480360361020a9190810190613560565b61147b565b60405161021c9190613dcc565b60405180910390f35b61023f600480360361023a91908101906136c6565b61149b565b005b61025b60048036036102569190810190613560565b6117bf565b6040516102689190613dcc565b60405180910390f35b610279611998565b6040516102869190614012565b60405180910390f35b6102a960048036036102a49190810190613560565b61199e565b6040516102b69190613dcc565b60405180910390f35b6102c7611b6a565b6040516102d49190613d3b565b60405180910390f35b6102f760048036036102f29190810190613745565b611b8f565b005b610313600480360361030e919081019061385e565b612057565b6040516103209190613d3b565b60405180910390f35b610331612093565b60405161033e9190614012565b60405180910390f35b610361600480360361035c9190810190613560565b61209d565b60405161037295949392919061402d565b60405180910390f35b6103956004803603610390919081019061385e565b612344565b6040516103a29190613d3b565b60405180910390f35b6103c560048036036103c09190810190613589565b612380565b6040516103d29190613dcc565b60405180910390f35b6103f560048036036103f091908101906135c5565b6125d7565b005b610411600480360361040c9190810190613560565b61285c565b60405161042396959493929190613de7565b60405180910390f35b61044660048036036104419190810190613560565b61319e565b6040516104539190613dcc565b60405180910390f35b61046461330a565b6040516104719190614012565b60405180910390f35b6000600860008473ffffffffffffffffffffffffffffffffffffffff1673ffffffffffffffffffffffffffffffffffffffff16815260200190815260200160002060008373ffffffffffffffffffffffffffffffffffffffff1673ffffffffffffffffffffffffffffffffffffffff16815260200190815260200160002060009054906101000a900460ff1661050f57600080fd5b8173ffffffffffffffffffffffffffffffffffffffff168373ffffffffffffffffffffffffffffffffffffffff16141561054857600080fd5b600860008473ffffffffffffffffffffffffffffffffffffffff1673ffffffffffffffffffffffffffffffffffffffff16815260200190815260200160002060003373ffffffffffffffffffffffffffffffffffffffff1673ffffffffffffffffffffffffffffffffffffffff16815260200190815260200160002060009054906101000a900460ff166105db57600080fd5b600a60008473ffffffffffffffffffffffffffffffffffffffff1673ffffffffffffffffffffffffffffffffffffffff16815260200190815260200160002060009054906101000a900460ff1661063157600080fd5b6000600860008573ffffffffffffffffffffffffffffffffffffffff1673ffffffffffffffffffffffffffffffffffffffff16815260200190815260200160002060008473ffffffffffffffffffffffffffffffffffffffff1673ffffffffffffffffffffffffffffffffffffffff16815260200190815260200160002060006101000a81548160ff0219169083151502179055506001905092915050565b60003373ffffffffffffffffffffffffffffffffffffffff166000809054906101000a900473ffffffffffffffffffffffffffffffffffffffff1673ffffffffffffffffffffffffffffffffffffffff1614610761576040517f08c379a000000000000000000000000000000000000000000000000000000000815260040161075890613fb2565b60405180910390fd5b8173ffffffffffffffffffffffffffffffffffffffff163373ffffffffffffffffffffffffffffffffffffffff1614156107d0576040517f08c379a00000000000000000000000000000000000000000000000000000000081526004016107c790613f72565b60405180910390fd5b816000806101000a81548173ffffffffffffffffffffffffffffffffffffffff021916908373ffffffffffffffffffffffffffffffffffffffff1602179055508173ffffffffffffffffffffffffffffffffffffffff163373ffffffffffffffffffffffffffffffffffffffff167f5e89811b295d4a5353ccf3f888992d7bb4a7e394ee0f8a3c36303f2f4674cba260405160405180910390a360019050919050565b600060011515600160003373ffffffffffffffffffffffffffffffffffffffff1673ffffffffffffffffffffffffffffffffffffffff16815260200190815260200160002060009054906101000a900460ff16151514610908576040517f08c379a00000000000000000000000000000000000000000000000000000000081526004016108ff90613ff2565b60405180910390fd5b6000809054906101000a900473ffffffffffffffffffffffffffffffffffffffff1673ffffffffffffffffffffffffffffffffffffffff163373ffffffffffffffffffffffffffffffffffffffff16141561096257600080fd5b600160008373ffffffffffffffffffffffffffffffffffffffff1673ffffffffffffffffffffffffffffffffffffffff16815260200190815260200160002060009054906101000a900460ff166109b857600080fd5b6000600160008473ffffffffffffffffffffffffffffffffffffffff1673ffffffffffffffffffffffffffffffffffffffff16815260200190815260200160002060006101000a81548160ff0219169083151502179055508173ffffffffffffffffffffffffffffffffffffffff167fa3b62bc36326052d97ea62d63c3d60308ed4c3ea8ac079dd8499f1e9c4f80c0f60405160405180910390a260019050919050565b6060806060806060600860008773ffffffffffffffffffffffffffffffffffffffff1673ffffffffffffffffffffffffffffffffffffffff16815260200190815260200160002060003373ffffffffffffffffffffffffffffffffffffffff1673ffffffffffffffffffffffffffffffffffffffff16815260200190815260200160002060009054906101000a900460ff16610b2d576040517f08c379a0000000000000000000000000000000000000000000000000000000008152600401610b2490613f12565b60405180910390fd5b600a60008773ffffffffffffffffffffffffffffffffffffffff1673ffffffffffffffffffffffffffffffffffffffff16815260200190815260200160002060009054906101000a900460ff16610bb9576040517f08c379a0000000000000000000000000000000000000000000000000000000008152600401610bb090613e92565b60405180910390fd5b6000600960008873ffffffffffffffffffffffffffffffffffffffff1673ffffffffffffffffffffffffffffffffffffffff1681526020019081526020016000206007018054905011610c41576040517f08c379a0000000000000000000000000000000000000000000000000000000008152600401610c3890613eb2565b60405180910390fd5b6060600960008873ffffffffffffffffffffffffffffffffffffffff1673ffffffffffffffffffffffffffffffffffffffff16815260200190815260200160002060070180549050604051908082528060200260200182016040528015610cbc57816020015b6060815260200190600190039081610ca75790505b5090506060600960008973ffffffffffffffffffffffffffffffffffffffff1673ffffffffffffffffffffffffffffffffffffffff16815260200190815260200160002060070180549050604051908082528060200260200182016040528015610d3a57816020015b6060815260200190600190039081610d255790505b5090506060600960008a73ffffffffffffffffffffffffffffffffffffffff1673ffffffffffffffffffffffffffffffffffffffff16815260200190815260200160002060070180549050604051908082528060200260200182016040528015610db857816020015b6060815260200190600190039081610da35790505b5090506060600960008b73ffffffffffffffffffffffffffffffffffffffff1673ffffffffffffffffffffffffffffffffffffffff16815260200190815260200160002060070180549050604051908082528060200260200182016040528015610e3657816020015b6060815260200190600190039081610e215790505b5090506060600960008c73ffffffffffffffffffffffffffffffffffffffff1673ffffffffffffffffffffffffffffffffffffffff16815260200190815260200160002060070180549050604051908082528060200260200182016040528015610eb457816020015b6060815260200190600190039081610e9f5790505b50905060008090505b600960008d73ffffffffffffffffffffffffffffffffffffffff1673ffffffffffffffffffffffffffffffffffffffff1681526020019081526020016000206007018054905081101561145d57600960008d73ffffffffffffffffffffffffffffffffffffffff1673ffffffffffffffffffffffffffffffffffffffff1681526020019081526020016000206007018181548110610f5757fe5b90600052602060002090600502016000018054600181600116156101000203166002900480601f016020809104026020016040519081016040528092919081815260200182805460018160011615610100020316600290048015610ffc5780601f10610fd157610100808354040283529160200191610ffc565b820191906000526020600020905b815481529060010190602001808311610fdf57829003601f168201915b505050505086828151811061100d57fe5b6020026020010181905250600960008d73ffffffffffffffffffffffffffffffffffffffff1673ffffffffffffffffffffffffffffffffffffffff168152602001908152602001600020600701818154811061106557fe5b90600052602060002090600502016001018054600181600116156101000203166002900480601f01602080910402602001604051908101604052809291908181526020018280546001816001161561010002031660029004801561110a5780601f106110df5761010080835404028352916020019161110a565b820191906000526020600020905b8154815290600101906020018083116110ed57829003601f168201915b505050505085828151811061111b57fe5b6020026020010181905250600960008d73ffffffffffffffffffffffffffffffffffffffff1673ffffffffffffffffffffffffffffffffffffffff168152602001908152602001600020600701818154811061117357fe5b90600052602060002090600502016002018054600181600116156101000203166002900480601f0160208091040260200160405190810160405280929190818152602001828054600181600116156101000203166002900480156112185780601f106111ed57610100808354040283529160200191611218565b820191906000526020600020905b8154815290600101906020018083116111fb57829003601f168201915b505050505084828151811061122957fe5b6020026020010181905250600960008d73ffffffffffffffffffffffffffffffffffffffff1673ffffffffffffffffffffffffffffffffffffffff168152602001908152602001600020600701818154811061128157fe5b90600052602060002090600502016003018054600181600116156101000203166002900480601f0160208091040260200160405190810160405280929190818152602001828054600181600116156101000203166002900480156113265780601f106112fb57610100808354040283529160200191611326565b820191906000526020600020905b81548152906001019060200180831161130957829003601f168201915b505050505083828151811061133757fe5b6020026020010181905250600960008d73ffffffffffffffffffffffffffffffffffffffff1673ffffffffffffffffffffffffffffffffffffffff168152602001908152602001600020600701818154811061138f57fe5b90600052602060002090600502016004018054600181600116156101000203166002900480601f0160208091040260200160405190810160405280929190818152602001828054600181600116156101000203166002900480156114345780601f1061140957610100808354040283529160200191611434565b820191906000526020600020905b81548152906001019060200180831161141757829003601f168201915b505050505082828151811061144557fe5b60200260200101819052508080600101915050610ebd565b50848484848499509950995099509950505050505091939590929450565b60016020528060005260406000206000915054906101000a900460ff1681565b60011515600160003373ffffffffffffffffffffffffffffffffffffffff1673ffffffffffffffffffffffffffffffffffffffff16815260200190815260200160002060009054906101000a900460ff1615151461152e576040517f08c379a000000000000000000000000000000000000000000000000000000000815260040161152590613ff2565b60405180910390fd5b600360008273ffffffffffffffffffffffffffffffffffffffff1673ffffffffffffffffffffffffffffffffffffffff16815260200190815260200160002060009054906101000a900460ff16156115bb576040517f08c379a00000000000000000000000000000000000000000000000000000000081526004016115b290613fd2565b60405180910390fd5b60058190806001815401808255809150509060018203906000526020600020016000909192909190916101000a81548173ffffffffffffffffffffffffffffffffffffffff021916908373ffffffffffffffffffffffffffffffffffffffff160217905550506002600081548092919060010191905055506001600360008373ffffffffffffffffffffffffffffffffffffffff1673ffffffffffffffffffffffffffffffffffffffff16815260200190815260200160002060006101000a81548160ff0219169083151502179055506040518060a0016040528060025481526020018481526020018381526020018273ffffffffffffffffffffffffffffffffffffffff16815260200160011515815250600460008373ffffffffffffffffffffffffffffffffffffffff1673ffffffffffffffffffffffffffffffffffffffff168152602001908152602001600020600082015181600001556020820151816001019080519060200190611732929190613314565b50604082015181600201908051906020019061174f929190613314565b5060608201518160030160006101000a81548173ffffffffffffffffffffffffffffffffffffffff021916908373ffffffffffffffffffffffffffffffffffffffff16021790555060808201518160030160146101000a81548160ff021916908315150217905550905050505050565b6000600860003373ffffffffffffffffffffffffffffffffffffffff1673ffffffffffffffffffffffffffffffffffffffff16815260200190815260200160002060008373ffffffffffffffffffffffffffffffffffffffff1673ffffffffffffffffffffffffffffffffffffffff16815260200190815260200160002060009054906101000a900460ff161561188b576040517f08c379a000000000000000000000000000000000000000000000000000000000815260040161188290613f92565b60405180910390fd5b8173ffffffffffffffffffffffffffffffffffffffff163373ffffffffffffffffffffffffffffffffffffffff1614156118fa576040517f08c379a00000000000000000000000000000000000000000000000000000000081526004016118f190613e72565b60405180910390fd5b6001600860003373ffffffffffffffffffffffffffffffffffffffff1673ffffffffffffffffffffffffffffffffffffffff16815260200190815260200160002060008473ffffffffffffffffffffffffffffffffffffffff1673ffffffffffffffffffffffffffffffffffffffff16815260200190815260200160002060006101000a81548160ff02191690831515021790555060019050919050565b60065481565b600060011515600160003373ffffffffffffffffffffffffffffffffffffffff1673ffffffffffffffffffffffffffffffffffffffff16815260200190815260200160002060009054906101000a900460ff16151514611a33576040517f08c379a0000000000000000000000000000000000000000000000000000000008152600401611a2a90613ff2565b60405180910390fd5b60011515600160008473ffffffffffffffffffffffffffffffffffffffff1673ffffffffffffffffffffffffffffffffffffffff16815260200190815260200160002060009054906101000a900460ff1615151415611ac7576040517f08c379a0000000000000000000000000000000000000000000000000000000008152600401611abe90613f32565b60405180910390fd5b60018060008473ffffffffffffffffffffffffffffffffffffffff1673ffffffffffffffffffffffffffffffffffffffff16815260200190815260200160002060006101000a81548160ff0219169083151502179055508173ffffffffffffffffffffffffffffffffffffffff167f44d6d25963f097ad14f29f06854a01f575648a1ef82f30e562ccd3889717e33960405160405180910390a260019050919050565b6000809054906101000a900473ffffffffffffffffffffffffffffffffffffffff1681565b600a60003373ffffffffffffffffffffffffffffffffffffffff1673ffffffffffffffffffffffffffffffffffffffff16815260200190815260200160002060009054906101000a900460ff1615611c1c576040517f08c379a0000000000000000000000000000000000000000000000000000000008152600401611c1390613f52565b60405180910390fd5b60073390806001815401808255809150509060018203906000526020600020016000909192909190916101000a81548173ffffffffffffffffffffffffffffffffffffffff021916908373ffffffffffffffffffffffffffffffffffffffff160217905550506001600654016006819055506001600a60003373ffffffffffffffffffffffffffffffffffffffff1673ffffffffffffffffffffffffffffffffffffffff16815260200190815260200160002060006101000a81548160ff0219169083151502179055506001600860003373ffffffffffffffffffffffffffffffffffffffff1673ffffffffffffffffffffffffffffffffffffffff16815260200190815260200160002060003373ffffffffffffffffffffffffffffffffffffffff1673ffffffffffffffffffffffffffffffffffffffff16815260200190815260200160002060006101000a81548160ff021916908315150217905550600654600960003373ffffffffffffffffffffffffffffffffffffffff1673ffffffffffffffffffffffffffffffffffffffff1681526020019081526020016000206000018190555085600960003373ffffffffffffffffffffffffffffffffffffffff1673ffffffffffffffffffffffffffffffffffffffff1681526020019081526020016000206001019080519060200190611e1a929190613394565b5084600960003373ffffffffffffffffffffffffffffffffffffffff1673ffffffffffffffffffffffffffffffffffffffff1681526020019081526020016000206002019080519060200190611e71929190613394565b5083600960003373ffffffffffffffffffffffffffffffffffffffff1673ffffffffffffffffffffffffffffffffffffffff1681526020019081526020016000206003019080519060200190611ec8929190613394565b5082600960003373ffffffffffffffffffffffffffffffffffffffff1673ffffffffffffffffffffffffffffffffffffffff1681526020019081526020016000206004019080519060200190611f1f929190613394565b5081600960003373ffffffffffffffffffffffffffffffffffffffff1673ffffffffffffffffffffffffffffffffffffffff1681526020019081526020016000206005019080519060200190611f76929190613394565b5080600960003373ffffffffffffffffffffffffffffffffffffffff1673ffffffffffffffffffffffffffffffffffffffff1681526020019081526020016000206006019080519060200190611fcd929190613394565b5033600960003373ffffffffffffffffffffffffffffffffffffffff1673ffffffffffffffffffffffffffffffffffffffff16815260200190815260200160002060080160006101000a81548173ffffffffffffffffffffffffffffffffffffffff021916908373ffffffffffffffffffffffffffffffffffffffff160217905550505050505050565b6007818154811061206457fe5b906000526020600020016000915054906101000a900473ffffffffffffffffffffffffffffffffffffffff1681565b6000600654905090565b6000606080600080600460008773ffffffffffffffffffffffffffffffffffffffff1673ffffffffffffffffffffffffffffffffffffffff16815260200190815260200160002060030160149054906101000a900460ff166120fe57600080fd5b612106613414565b600460008873ffffffffffffffffffffffffffffffffffffffff1673ffffffffffffffffffffffffffffffffffffffff1681526020019081526020016000206040518060a001604052908160008201548152602001600182018054600181600116156101000203166002900480601f0160208091040260200160405190810160405280929190818152602001828054600181600116156101000203166002900480156121f35780601f106121c8576101008083540402835291602001916121f3565b820191906000526020600020905b8154815290600101906020018083116121d657829003601f168201915b50505050508152602001600282018054600181600116156101000203166002900480601f0160208091040260200160405190810160405280929190818152602001828054600181600116156101000203166002900480156122955780601f1061226a57610100808354040283529160200191612295565b820191906000526020600020905b81548152906001019060200180831161227857829003601f168201915b505050505081526020016003820160009054906101000a900473ffffffffffffffffffffffffffffffffffffffff1673ffffffffffffffffffffffffffffffffffffffff1673ffffffffffffffffffffffffffffffffffffffff1681526020016003820160149054906101000a900460ff161515151581525050905080600001518160200151826040015183606001518460800151839350829250955095509550955095505091939590929450565b6005818154811061235157fe5b906000526020600020016000915054906101000a900473ffffffffffffffffffffffffffffffffffffffff1681565b6000600860008473ffffffffffffffffffffffffffffffffffffffff1673ffffffffffffffffffffffffffffffffffffffff16815260200190815260200160002060008373ffffffffffffffffffffffffffffffffffffffff1673ffffffffffffffffffffffffffffffffffffffff16815260200190815260200160002060009054906101000a900460ff161561241657600080fd5b8173ffffffffffffffffffffffffffffffffffffffff168373ffffffffffffffffffffffffffffffffffffffff16141561244f57600080fd5b600860008473ffffffffffffffffffffffffffffffffffffffff1673ffffffffffffffffffffffffffffffffffffffff16815260200190815260200160002060003373ffffffffffffffffffffffffffffffffffffffff1673ffffffffffffffffffffffffffffffffffffffff16815260200190815260200160002060009054906101000a900460ff166124e257600080fd5b600a60008473ffffffffffffffffffffffffffffffffffffffff1673ffffffffffffffffffffffffffffffffffffffff16815260200190815260200160002060009054906101000a900460ff1661253857600080fd5b6001600860008573ffffffffffffffffffffffffffffffffffffffff1673ffffffffffffffffffffffffffffffffffffffff16815260200190815260200160002060008473ffffffffffffffffffffffffffffffffffffffff1673ffffffffffffffffffffffffffffffffffffffff16815260200190815260200160002060006101000a81548160ff0219169083151502179055506001905092915050565b600a60008773ffffffffffffffffffffffffffffffffffffffff1673ffffffffffffffffffffffffffffffffffffffff16815260200190815260200160002060009054906101000a900460ff16612663576040517f08c379a000000000000000000000000000000000000000000000000000000000815260040161265a90613ed2565b60405180910390fd5b600860008773ffffffffffffffffffffffffffffffffffffffff1673ffffffffffffffffffffffffffffffffffffffff16815260200190815260200160002060003373ffffffffffffffffffffffffffffffffffffffff1673ffffffffffffffffffffffffffffffffffffffff16815260200190815260200160002060009054906101000a900460ff1661272c576040517f08c379a000000000000000000000000000000000000000000000000000000000815260040161272390613ef2565b60405180910390fd5b600960008773ffffffffffffffffffffffffffffffffffffffff1673ffffffffffffffffffffffffffffffffffffffff1681526020019081526020016000206007016040518060a00160405280878152602001868152602001858152602001848152602001838152509080600181540180825580915050906001820390600052602060002090600502016000909192909190915060008201518160000190805190602001906127dc929190613314565b5060208201518160010190805190602001906127f9929190613314565b506040820151816002019080519060200190612816929190613314565b506060820151816003019080519060200190612833929190613314565b506080820151816004019080519060200190612850929190613314565b50505050505050505050565b606080606080606080600860008873ffffffffffffffffffffffffffffffffffffffff1673ffffffffffffffffffffffffffffffffffffffff16815260200190815260200160002060003373ffffffffffffffffffffffffffffffffffffffff1673ffffffffffffffffffffffffffffffffffffffff16815260200190815260200160002060009054906101000a900460ff166128f857600080fd5b600a60008873ffffffffffffffffffffffffffffffffffffffff1673ffffffffffffffffffffffffffffffffffffffff16815260200190815260200160002060009054906101000a900460ff1661294e57600080fd5b61295661345b565b600960008973ffffffffffffffffffffffffffffffffffffffff1673ffffffffffffffffffffffffffffffffffffffff1681526020019081526020016000206040518061012001604052908160008201548152602001600182018054600181600116156101000203166002900480601f016020809104026020016040519081016040528092919081815260200182805460018160011615610100020316600290048015612a445780601f10612a1957610100808354040283529160200191612a44565b820191906000526020600020905b815481529060010190602001808311612a2757829003601f168201915b50505050508152602001600282018054600181600116156101000203166002900480601f016020809104026020016040519081016040528092919081815260200182805460018160011615610100020316600290048015612ae65780601f10612abb57610100808354040283529160200191612ae6565b820191906000526020600020905b815481529060010190602001808311612ac957829003601f168201915b50505050508152602001600382018054600181600116156101000203166002900480601f016020809104026020016040519081016040528092919081815260200182805460018160011615610100020316600290048015612b885780601f10612b5d57610100808354040283529160200191612b88565b820191906000526020600020905b815481529060010190602001808311612b6b57829003601f168201915b50505050508152602001600482018054600181600116156101000203166002900480601f016020809104026020016040519081016040528092919081815260200182805460018160011615610100020316600290048015612c2a5780601f10612bff57610100808354040283529160200191612c2a565b820191906000526020600020905b815481529060010190602001808311612c0d57829003601f168201915b50505050508152602001600582018054600181600116156101000203166002900480601f016020809104026020016040519081016040528092919081815260200182805460018160011615610100020316600290048015612ccc5780601f10612ca157610100808354040283529160200191612ccc565b820191906000526020600020905b815481529060010190602001808311612caf57829003601f168201915b50505050508152602001600682018054600181600116156101000203166002900480601f016020809104026020016040519081016040528092919081815260200182805460018160011615610100020316600290048015612d6e5780601f10612d4357610100808354040283529160200191612d6e565b820191906000526020600020905b815481529060010190602001808311612d5157829003601f168201915b5050505050815260200160078201805480602002602001604051908101604052809291908181526020016000905b828210156130f857838290600052602060002090600502016040518060a0016040529081600082018054600181600116156101000203166002900480601f016020809104026020016040519081016040528092919081815260200182805460018160011615610100020316600290048015612e585780601f10612e2d57610100808354040283529160200191612e58565b820191906000526020600020905b815481529060010190602001808311612e3b57829003601f168201915b50505050508152602001600182018054600181600116156101000203166002900480601f016020809104026020016040519081016040528092919081815260200182805460018160011615610100020316600290048015612efa5780601f10612ecf57610100808354040283529160200191612efa565b820191906000526020600020905b815481529060010190602001808311612edd57829003601f168201915b50505050508152602001600282018054600181600116156101000203166002900480601f016020809104026020016040519081016040528092919081815260200182805460018160011615610100020316600290048015612f9c5780601f10612f7157610100808354040283529160200191612f9c565b820191906000526020600020905b815481529060010190602001808311612f7f57829003601f168201915b50505050508152602001600382018054600181600116156101000203166002900480601f01602080910402602001604051908101604052809291908181526020018280546001816001161561010002031660029004801561303e5780601f106130135761010080835404028352916020019161303e565b820191906000526020600020905b81548152906001019060200180831161302157829003601f168201915b50505050508152602001600482018054600181600116156101000203166002900480601f0160208091040260200160405190810160405280929190818152602001828054600181600116156101000203166002900480156130e05780601f106130b5576101008083540402835291602001916130e0565b820191906000526020600020905b8154815290600101906020018083116130c357829003601f168201915b50505050508152505081526020019060010190612d9c565b5050505081526020016008820160009054906101000a900473ffffffffffffffffffffffffffffffffffffffff1673ffffffffffffffffffffffffffffffffffffffff1673ffffffffffffffffffffffffffffffffffffffff1681525050905080602001518160400151826060015183608001518460a001518560c001518595508494508393508292508191508090509650965096509650965096505091939550919395565b60008173ffffffffffffffffffffffffffffffffffffffff163373ffffffffffffffffffffffffffffffffffffffff1614156131d957600080fd5b600860003373ffffffffffffffffffffffffffffffffffffffff1673ffffffffffffffffffffffffffffffffffffffff16815260200190815260200160002060008373ffffffffffffffffffffffffffffffffffffffff1673ffffffffffffffffffffffffffffffffffffffff16815260200190815260200160002060009054906101000a900460ff1661326c57600080fd5b6000600860003373ffffffffffffffffffffffffffffffffffffffff1673ffffffffffffffffffffffffffffffffffffffff16815260200190815260200160002060008473ffffffffffffffffffffffffffffffffffffffff1673ffffffffffffffffffffffffffffffffffffffff16815260200190815260200160002060006101000a81548160ff02191690831515021790555060019050919050565b6000600254905090565b828054600181600116156101000203166002900490600052602060002090601f016020900481019282601f1061335557805160ff1916838001178555613383565b82800160010185558215613383579182015b82811115613382578251825591602001919060010190613367565b5b50905061339091906134bd565b5090565b828054600181600116156101000203166002900490600052602060002090601f016020900481019282601f106133d557805160ff1916838001178555613403565b82800160010185558215613403579182015b828111156134025782518255916020019190600101906133e7565b5b50905061341091906134bd565b5090565b6040518060a00160405280600081526020016060815260200160608152602001600073ffffffffffffffffffffffffffffffffffffffff1681526020016000151581525090565b6040518061012001604052806000815260200160608152602001606081526020016060815260200160608152602001606081526020016060815260200160608152602001600073ffffffffffffffffffffffffffffffffffffffff1681525090565b6134df91905b808211156134db5760008160009055506001016134c3565b5090565b90565b6000813590506134f1816141f3565b92915050565b600082601f83011261350857600080fd5b813561351b613516826140bb565b61408e565b9150808252602083016020830185838301111561353757600080fd5b6135428382846141a0565b50505092915050565b60008135905061355a8161420a565b92915050565b60006020828403121561357257600080fd5b6000613580848285016134e2565b91505092915050565b6000806040838503121561359c57600080fd5b60006135aa858286016134e2565b92505060206135bb858286016134e2565b9150509250929050565b60008060008060008060c087890312156135de57600080fd5b60006135ec89828a016134e2565b965050602087013567ffffffffffffffff81111561360957600080fd5b61361589828a016134f7565b955050604087013567ffffffffffffffff81111561363257600080fd5b61363e89828a016134f7565b945050606087013567ffffffffffffffff81111561365b57600080fd5b61366789828a016134f7565b935050608087013567ffffffffffffffff81111561368457600080fd5b61369089828a016134f7565b92505060a087013567ffffffffffffffff8111156136ad57600080fd5b6136b989828a016134f7565b9150509295509295509295565b6000806000606084860312156136db57600080fd5b600084013567ffffffffffffffff8111156136f557600080fd5b613701868287016134f7565b935050602084013567ffffffffffffffff81111561371e57600080fd5b61372a868287016134f7565b925050604061373b868287016134e2565b9150509250925092565b60008060008060008060c0878903121561375e57600080fd5b600087013567ffffffffffffffff81111561377857600080fd5b61378489828a016134f7565b965050602087013567ffffffffffffffff8111156137a157600080fd5b6137ad89828a016134f7565b955050604087013567ffffffffffffffff8111156137ca57600080fd5b6137d689828a016134f7565b945050606087013567ffffffffffffffff8111156137f357600080fd5b6137ff89828a016134f7565b935050608087013567ffffffffffffffff81111561381c57600080fd5b61382889828a016134f7565b92505060a087013567ffffffffffffffff81111561384557600080fd5b61385189828a016134f7565b9150509295509295509295565b60006020828403121561387057600080fd5b600061387e8482850161354b565b91505092915050565b60006138938383613967565b905092915050565b6138a481614158565b82525050565b60006138b5826140f7565b6138bf8185614125565b9350836020820285016138d1856140e7565b8060005b8581101561390d57848403895281516138ee8582613887565b94506138f983614118565b925060208a019950506001810190506138d5565b50829750879550505050505092915050565b6139288161416a565b82525050565b60006139398261410d565b6139438185614147565b93506139538185602086016141af565b61395c816141e2565b840191505092915050565b600061397282614102565b61397c8185614136565b935061398c8185602086016141af565b613995816141e2565b840191505092915050565b60006139ad601183614147565b91507f43616e742061646420796f757273656c660000000000000000000000000000006000830152602082019050919050565b60006139ed600e83614147565b91507f4e6f7420726567697374657265640000000000000000000000000000000000006000830152602082019050919050565b6000613a2d600a83614147565b91507f4e6f207265636f726473000000000000000000000000000000000000000000006000830152602082019050919050565b6000613a6d601383614147565b91507f55736572206e6f742072656769737465726564000000000000000000000000006000830152602082019050919050565b6000613aad600c83614147565b91507f6e6f207065726d7369696f6e00000000000000000000000000000000000000006000830152602082019050919050565b6000613aed600c83614147565b91507f4e6f207065726d7369696f6e00000000000000000000000000000000000000006000830152602082019050919050565b6000613b2d601583614147565b91507f416c726561647920796f75206172652061646d696e00000000000000000000006000830152602082019050919050565b6000613b6d600c83614147565b91507f416c7265616479206865726500000000000000000000000000000000000000006000830152602082019050919050565b6000613bad601583614147565b91507f416c726561647920796f7520617265206f776e657200000000000000000000006000830152602082019050919050565b6000613bed601283614147565b91507f416c726561647920417574686f726973656400000000000000000000000000006000830152602082019050919050565b6000613c2d602a83614147565b91507f4f6e6c79206f776e65722069732068617665207468652061636365737320746f60008301527f20646f20616374696f6e000000000000000000000000000000000000000000006020830152604082019050919050565b6000613c93600d83614147565b91507f416c7265616479204164646564000000000000000000000000000000000000006000830152602082019050919050565b6000613cd3602a83614147565b91507f4f6e6c792061646d696e2069732068617665207468652061636365737320746f60008301527f20646f20616374696f6e000000000000000000000000000000000000000000006020830152604082019050919050565b613d3581614196565b82525050565b6000602082019050613d50600083018461389b565b92915050565b600060a0820190508181036000830152613d7081886138aa565b90508181036020830152613d8481876138aa565b90508181036040830152613d9881866138aa565b90508181036060830152613dac81856138aa565b90508181036080830152613dc081846138aa565b90509695505050505050565b6000602082019050613de1600083018461391f565b92915050565b600060c0820190508181036000830152613e01818961392e565b90508181036020830152613e15818861392e565b90508181036040830152613e29818761392e565b90508181036060830152613e3d818661392e565b90508181036080830152613e51818561392e565b905081810360a0830152613e65818461392e565b9050979650505050505050565b60006020820190508181036000830152613e8b816139a0565b9050919050565b60006020820190508181036000830152613eab816139e0565b9050919050565b60006020820190508181036000830152613ecb81613a20565b9050919050565b60006020820190508181036000830152613eeb81613a60565b9050919050565b60006020820190508181036000830152613f0b81613aa0565b9050919050565b60006020820190508181036000830152613f2b81613ae0565b9050919050565b60006020820190508181036000830152613f4b81613b20565b9050919050565b60006020820190508181036000830152613f6b81613b60565b9050919050565b60006020820190508181036000830152613f8b81613ba0565b9050919050565b60006020820190508181036000830152613fab81613be0565b9050919050565b60006020820190508181036000830152613fcb81613c20565b9050919050565b60006020820190508181036000830152613feb81613c86565b9050919050565b6000602082019050818103600083015261400b81613cc6565b9050919050565b60006020820190506140276000830184613d2c565b92915050565b600060a0820190506140426000830188613d2c565b8181036020830152614054818761392e565b90508181036040830152614068818661392e565b9050614077606083018561389b565b614084608083018461391f565b9695505050505050565b6000604051905081810181811067ffffffffffffffff821117156140b157600080fd5b8060405250919050565b600067ffffffffffffffff8211156140d257600080fd5b601f19601f8301169050602081019050919050565b6000819050602082019050919050565b600081519050919050565b600081519050919050565b600081519050919050565b6000602082019050919050565b600082825260208201905092915050565b600082825260208201905092915050565b600082825260208201905092915050565b600061416382614176565b9050919050565b60008115159050919050565b600073ffffffffffffffffffffffffffffffffffffffff82169050919050565b6000819050919050565b82818337600083830152505050565b60005b838110156141cd5780820151818401526020810190506141b2565b838111156141dc576000848401525b50505050565b6000601f19601f8301169050919050565b6141fc81614158565b811461420757600080fd5b50565b61421381614196565b811461421e57600080fd5b5056fea365627a7a723158201c079005ca1f9f5b4b00c2e923366bd7a4c47fbf16e35a8a412676f5c8226b156c6578706572696d656e74616cf564736f6c63430005100040",
  "source": "pragma solidity >=0.4.22 <0.7.0;\r\npragma experimental ABIEncoderV2;\r\nimport \"./hospital.sol\";\r\n\r\ncontract Patient is Hospital {\r\n    uint256 public pindex = 0;\r\n\r\n    struct Records {\r\n        string hname;\r\n        string reason;\r\n        string admittedOn;\r\n        string disChargedOn;\r\n        string ipfs;\r\n    }\r\n\r\n    struct patient {\r\n        uint256 id;\r\n        string name;\r\n        string phone;\r\n        string gender;\r\n        string dob;\r\n        string bloodgroup;\r\n        string allergies;\r\n        Records[] records;\r\n        address addr;\r\n    }\r\n    address[] public patientList;\r\n    mapping(address => mapping(address => bool)) isAuth;\r\n    mapping(address => patient) patients;\r\n    mapping(address => bool) isPatient;\r\n\r\n    function addRecord(\r\n        address _addr,\r\n        string memory _hname,\r\n        string memory _reason,\r\n        string memory _admittedOn,\r\n        string memory _dischargedOn,\r\n        string memory _ipfs\r\n    ) public {\r\n        require(isPatient[_addr], \"User not registered\");\r\n        require(isAuth[_addr][msg.sender], \"no permsiion\");\r\n        patients[_addr].records.push(\r\n            Records(_hname, _reason, _admittedOn, _dischargedOn, _ipfs)\r\n        );\r\n    }\r\n\r\n    function addPatient(\r\n        string memory _name,\r\n        string memory _phone,\r\n        string memory _gender,\r\n        string memory _dob,\r\n        string memory _bloodgroup,\r\n        string memory _allergies\r\n    ) public {\r\n        require(!isPatient[msg.sender], \"Already here\");\r\n        patientList.push(msg.sender);\r\n        pindex = pindex + 1;\r\n        isPatient[msg.sender] = true;\r\n        isAuth[msg.sender][msg.sender] = true;\r\n        patients[msg.sender].id = pindex;\r\n        patients[msg.sender].name = _name;\r\n        patients[msg.sender].phone = _phone;\r\n        patients[msg.sender].gender = _gender;\r\n        patients[msg.sender].dob = _dob;\r\n        patients[msg.sender].bloodgroup = _bloodgroup;\r\n        patients[msg.sender].allergies = _allergies;\r\n        patients[msg.sender].addr = msg.sender;\r\n    }\r\n\r\n    function getPatientDetails(address _addr)\r\n        public\r\n        view\r\n        returns (\r\n            string memory _name,\r\n            string memory _phone,\r\n            string memory _gender,\r\n            string memory _dob,\r\n            string memory _bloodgroup,\r\n            string memory _allergies\r\n        )\r\n    {\r\n        require(isAuth[_addr][msg.sender]);\r\n        require(isPatient[_addr]);\r\n        patient memory tmp = patients[_addr];\r\n        return (\r\n            tmp.name,\r\n            tmp.phone,\r\n            tmp.gender,\r\n            tmp.dob,\r\n            tmp.bloodgroup,\r\n            tmp.allergies\r\n        );\r\n    }\r\n\r\n    function getPatientRecords(address _addr)\r\n        public\r\n        view\r\n        returns (\r\n            string[] memory _hname,\r\n            string[] memory _reason,\r\n            string[] memory _admittedOn,\r\n            string[] memory _dischargedOn,\r\n            string[] memory ipfs\r\n        )\r\n    {\r\n        require(isAuth[_addr][msg.sender], \"No permsiion\");\r\n        require(isPatient[_addr], \"Not registered\");\r\n        require(patients[_addr].records.length > 0, \"No records\");\r\n        string[] memory hname = new string[](patients[_addr].records.length);\r\n        string[] memory Reason = new string[](patients[_addr].records.length);\r\n        string[] memory AdmOn = new string[](patients[_addr].records.length);\r\n        string[] memory disOn = new string[](patients[_addr].records.length);\r\n        string[] memory IPFS = new string[](patients[_addr].records.length);\r\n        for (uint256 i = 0; i < patients[_addr].records.length; i++) {\r\n            hname[i] = patients[_addr].records[i].hname;\r\n            Reason[i] = patients[_addr].records[i].reason;\r\n            AdmOn[i] = patients[_addr].records[i].admittedOn;\r\n            disOn[i] = patients[_addr].records[i].disChargedOn;\r\n            IPFS[i] = patients[_addr].records[i].ipfs;\r\n        }\r\n        return (hname, Reason, AdmOn, disOn, IPFS);\r\n    }\r\n\r\n    function addAuth(address _addr) public returns (bool success) {\r\n        require(!isAuth[msg.sender][_addr], \"Already Authorised\");\r\n        require(msg.sender != _addr, \"Cant add yourself\");\r\n        isAuth[msg.sender][_addr] = true;\r\n        return true;\r\n    }\r\n\r\n    function revokeAuth(address _addr) public returns (bool success) {\r\n        require(msg.sender != _addr);\r\n        require(isAuth[msg.sender][_addr]);\r\n        isAuth[msg.sender][_addr] = false;\r\n        return true;\r\n    }\r\n\r\n    function addAuthFromTo(address _from, address _to)\r\n        public\r\n        returns (bool success)\r\n    {\r\n        require(!isAuth[_from][_to]);\r\n        require(_from != _to);\r\n        require(isAuth[_from][msg.sender]);\r\n        require(isPatient[_from]);\r\n        isAuth[_from][_to] = true;\r\n        return true;\r\n    }\r\n\r\n    function removeAuthFromTo(address _from, address _to)\r\n        public\r\n        returns (bool success)\r\n    {\r\n        require(isAuth[_from][_to]);\r\n        require(_from != _to);\r\n        require(isAuth[_from][msg.sender]);\r\n        require(isPatient[_from]);\r\n        isAuth[_from][_to] = false;\r\n        return true;\r\n    }\r\n\r\n    function getPatientCount() public view returns (uint256) {\r\n        return pindex;\r\n    }\r\n}\r\n",
  "sourcePath": "G:\\GP\\Projects\\Medical Record\\contracts\\patient.sol",
  "compiler": {
    "name": "solc",
    "version": "0.5.16+commit.9c3226ce.Emscripten.clang"
  },
  "schemaVersion": "3.4.3",
  "updatedAt": "2021-09-21T13:49:56.169Z",
  "networkType": "ethereum",
  "devdoc": {
    "methods": {}
  },
  "userdoc": {
    "methods": {}
  }
}