{
  "contractName": "Hospital",
  "abi": [
    {
      "anonymous": false,
      "inputs": [
        {
          "indexed": true,
          "internalType": "address",
          "name": "Admin_address",
          "type": "address"
        }
      ],
      "name": "AdminAdded",
      "type": "event"
    },
    {
      "anonymous": false,
      "inputs": [
        {
          "indexed": true,
          "internalType": "address",
          "name": "Admin_address",
          "type": "address"
        }
      ],
      "name": "AdminRemoved",
      "type": "event"
    },
    {
      "anonymous": false,
      "inputs": [
        {
          "indexed": true,
          "internalType": "address",
          "name": "from",
          "type": "address"
        },
        {
          "indexed": true,
          "internalType": "address",
          "name": "to",
          "type": "address"
        }
      ],
      "name": "ownerChanges",
      "type": "event"
    },
    {
      "constant": false,
      "inputs": [
        {
          "internalType": "address",
          "name": "_address",
          "type": "address"
        }
      ],
      "name": "addAdmin",
      "outputs": [
        {
          "internalType": "bool",
          "name": "success",
          "type": "bool"
        }
      ],
      "payable": false,
      "stateMutability": "nonpayable",
      "type": "function"
    },
    {
      "constant": true,
      "inputs": [
        {
          "internalType": "uint256",
          "name": "",
          "type": "uint256"
        }
      ],
      "name": "hospitalList",
      "outputs": [
        {
          "internalType": "address",
          "name": "",
          "type": "address"
        }
      ],
      "payable": false,
      "stateMutability": "view",
      "type": "function"
    },
    {
      "constant": true,
      "inputs": [],
      "name": "index",
      "outputs": [
        {
          "internalType": "uint256",
          "name": "",
          "type": "uint256"
        }
      ],
      "payable": false,
      "stateMutability": "view",
      "type": "function"
    },
    {
      "constant": true,
      "inputs": [],
      "name": "owner",
      "outputs": [
        {
          "internalType": "address",
          "name": "",
          "type": "address"
        }
      ],
      "payable": false,
      "stateMutability": "view",
      "type": "function"
    },
    {
      "constant": false,
      "inputs": [
        {
          "internalType": "address",
          "name": "_address",
          "type": "address"
        }
      ],
      "name": "removeAdmin",
      "outputs": [
        {
          "internalType": "bool",
          "name": "success",
          "type": "bool"
        }
      ],
      "payable": false,
      "stateMutability": "nonpayable",
      "type": "function"
    },
    {
      "constant": false,
      "inputs": [
        {
          "internalType": "address",
          "name": "_owner",
          "type": "address"
        }
      ],
      "name": "setOwner",
      "outputs": [
        {
          "internalType": "bool",
          "name": "success",
          "type": "bool"
        }
      ],
      "payable": false,
      "stateMutability": "nonpayable",
      "type": "function"
    },
    {
      "constant": false,
      "inputs": [
        {
          "internalType": "string",
          "name": "_name",
          "type": "string"
        },
        {
          "internalType": "string",
          "name": "_haddress",
          "type": "string"
        },
        {
          "internalType": "string",
          "name": "_hcontract",
          "type": "string"
        },
        {
          "internalType": "address",
          "name": "_addr",
          "type": "address"
        }
      ],
      "name": "addHospital",
      "outputs": [],
      "payable": false,
      "stateMutability": "nonpayable",
      "type": "function"
    },
    {
      "constant": true,
      "inputs": [
        {
          "internalType": "uint256",
          "name": "_id",
          "type": "uint256"
        }
      ],
      "name": "getHospitalbyId",
      "outputs": [
        {
          "internalType": "uint256",
          "name": "id",
          "type": "uint256"
        },
        {
          "internalType": "string",
          "name": "hname",
          "type": "string"
        },
        {
          "internalType": "string",
          "name": "haddress",
          "type": "string"
        },
        {
          "internalType": "string",
          "name": "hcontract",
          "type": "string"
        },
        {
          "internalType": "address",
          "name": "addr",
          "type": "address"
        },
        {
          "internalType": "bool",
          "name": "isApproved",
          "type": "bool"
        }
      ],
      "payable": false,
      "stateMutability": "view",
      "type": "function"
    }
  ],
  "bytecode": "0x6080604052336000806101000a81548173ffffffffffffffffffffffffffffffffffffffff021916908373ffffffffffffffffffffffffffffffffffffffff16021790555060018060003373ffffffffffffffffffffffffffffffffffffffff1673ffffffffffffffffffffffffffffffffffffffff16815260200190815260200160002060006101000a81548160ff021916908315150217905550611718806100aa6000396000f3fe608060405234801561001057600080fd5b50600436106100885760003560e01c80638da5cb5b1161005b5780638da5cb5b1461013b578063a7aa43ba14610159578063beef8d761461018e578063c82412b9146101aa57610088565b806313af40351461008d5780631785f53c146100bd5780632986c0e5146100ed578063704802751461010b575b600080fd5b6100a760048036036100a291908101906110e1565b6101da565b6040516100b4919061142b565b60405180910390f35b6100d760048036036100d291908101906110e1565b61037d565b6040516100e4919061142b565b60405180910390f35b6100f5610566565b6040516101029190611506565b60405180910390f35b610125600480360361012091908101906110e1565b61056c565b604051610132919061142b565b60405180910390f35b610143610738565b6040516101509190611410565b60405180910390f35b610173600480360361016e91908101906111b5565b61075d565b60405161018596959493929190611521565b60405180910390f35b6101a860048036036101a3919081019061110a565b610bf2565b005b6101c460048036036101bf91908101906111b5565b610f34565b6040516101d19190611410565b60405180910390f35b60003373ffffffffffffffffffffffffffffffffffffffff166000809054906101000a900473ffffffffffffffffffffffffffffffffffffffff1673ffffffffffffffffffffffffffffffffffffffff161461026b576040517f08c379a0000000000000000000000000000000000000000000000000000000008152600401610262906114c6565b60405180910390fd5b8173ffffffffffffffffffffffffffffffffffffffff163373ffffffffffffffffffffffffffffffffffffffff1614156102da576040517f08c379a00000000000000000000000000000000000000000000000000000000081526004016102d1906114a6565b60405180910390fd5b816000806101000a81548173ffffffffffffffffffffffffffffffffffffffff021916908373ffffffffffffffffffffffffffffffffffffffff1602179055508173ffffffffffffffffffffffffffffffffffffffff163373ffffffffffffffffffffffffffffffffffffffff167f5e89811b295d4a5353ccf3f888992d7bb4a7e394ee0f8a3c36303f2f4674cba260405160405180910390a360019050919050565b600060011515600160003373ffffffffffffffffffffffffffffffffffffffff1673ffffffffffffffffffffffffffffffffffffffff16815260200190815260200160002060009054906101000a900460ff16151514610412576040517f08c379a0000000000000000000000000000000000000000000000000000000008152600401610409906114e6565b60405180910390fd5b6000809054906101000a900473ffffffffffffffffffffffffffffffffffffffff1673ffffffffffffffffffffffffffffffffffffffff163373ffffffffffffffffffffffffffffffffffffffff16141561046c57600080fd5b600160008373ffffffffffffffffffffffffffffffffffffffff1673ffffffffffffffffffffffffffffffffffffffff16815260200190815260200160002060009054906101000a900460ff166104c257600080fd5b6000600160008473ffffffffffffffffffffffffffffffffffffffff1673ffffffffffffffffffffffffffffffffffffffff16815260200190815260200160002060006101000a81548160ff0219169083151502179055508173ffffffffffffffffffffffffffffffffffffffff167fa3b62bc36326052d97ea62d63c3d60308ed4c3ea8ac079dd8499f1e9c4f80c0f60405160405180910390a260019050919050565b60025481565b600060011515600160003373ffffffffffffffffffffffffffffffffffffffff1673ffffffffffffffffffffffffffffffffffffffff16815260200190815260200160002060009054906101000a900460ff16151514610601576040517f08c379a00000000000000000000000000000000000000000000000000000000081526004016105f8906114e6565b60405180910390fd5b60011515600160008473ffffffffffffffffffffffffffffffffffffffff1673ffffffffffffffffffffffffffffffffffffffff16815260200190815260200160002060009054906101000a900460ff1615151415610695576040517f08c379a000000000000000000000000000000000000000000000000000000000815260040161068c90611486565b60405180910390fd5b60018060008473ffffffffffffffffffffffffffffffffffffffff1673ffffffffffffffffffffffffffffffffffffffff16815260200190815260200160002060006101000a81548160ff0219169083151502179055508173ffffffffffffffffffffffffffffffffffffffff167f44d6d25963f097ad14f29f06854a01f575648a1ef82f30e562ccd3889717e33960405160405180910390a260019050919050565b6000809054906101000a900473ffffffffffffffffffffffffffffffffffffffff1681565b6000606080606060008060008090505b60058054905081101561080d5787600460006005848154811061078c57fe5b9060005260206000200160009054906101000a900473ffffffffffffffffffffffffffffffffffffffff1673ffffffffffffffffffffffffffffffffffffffff1673ffffffffffffffffffffffffffffffffffffffff1681526020019081526020016000206000015414156108005761080d565b808060010191505061076d565b87600460006005848154811061081f57fe5b9060005260206000200160009054906101000a900473ffffffffffffffffffffffffffffffffffffffff1673ffffffffffffffffffffffffffffffffffffffff1673ffffffffffffffffffffffffffffffffffffffff16815260200190815260200160002060000154146108c8576040517f08c379a00000000000000000000000000000000000000000000000000000000081526004016108bf90611466565b60405180910390fd5b6108d0610f70565b60046000600584815481106108e157fe5b9060005260206000200160009054906101000a900473ffffffffffffffffffffffffffffffffffffffff1673ffffffffffffffffffffffffffffffffffffffff1673ffffffffffffffffffffffffffffffffffffffff1681526020019081526020016000206040518060c001604052908160008201548152602001600182018054600181600116156101000203166002900480601f0160208091040260200160405190810160405280929190818152602001828054600181600116156101000203166002900480156109f45780601f106109c9576101008083540402835291602001916109f4565b820191906000526020600020905b8154815290600101906020018083116109d757829003601f168201915b50505050508152602001600282018054600181600116156101000203166002900480601f016020809104026020016040519081016040528092919081815260200182805460018160011615610100020316600290048015610a965780601f10610a6b57610100808354040283529160200191610a96565b820191906000526020600020905b815481529060010190602001808311610a7957829003601f168201915b50505050508152602001600382018054600181600116156101000203166002900480601f016020809104026020016040519081016040528092919081815260200182805460018160011615610100020316600290048015610b385780601f10610b0d57610100808354040283529160200191610b38565b820191906000526020600020905b815481529060010190602001808311610b1b57829003601f168201915b505050505081526020016004820160009054906101000a900473ffffffffffffffffffffffffffffffffffffffff1673ffffffffffffffffffffffffffffffffffffffff1673ffffffffffffffffffffffffffffffffffffffff1681526020016004820160149054906101000a900460ff1615151515815250509050806000015181602001518260400151836060015184608001518560a00151849450839350829250975097509750975097509750505091939550919395565b60011515600160003373ffffffffffffffffffffffffffffffffffffffff1673ffffffffffffffffffffffffffffffffffffffff16815260200190815260200160002060009054906101000a900460ff16151514610c85576040517f08c379a0000000000000000000000000000000000000000000000000000000008152600401610c7c906114e6565b60405180910390fd5b600360008273ffffffffffffffffffffffffffffffffffffffff1673ffffffffffffffffffffffffffffffffffffffff16815260200190815260200160002060009054906101000a900460ff1615610d12576040517f08c379a0000000000000000000000000000000000000000000000000000000008152600401610d0990611446565b60405180910390fd5b60058190806001815401808255809150509060018203906000526020600020016000909192909190916101000a81548173ffffffffffffffffffffffffffffffffffffffff021916908373ffffffffffffffffffffffffffffffffffffffff160217905550506001600254016002819055506001600360008373ffffffffffffffffffffffffffffffffffffffff1673ffffffffffffffffffffffffffffffffffffffff16815260200190815260200160002060006101000a81548160ff0219169083151502179055506040518060c0016040528060025481526020018581526020018481526020018381526020018273ffffffffffffffffffffffffffffffffffffffff16815260200160011515815250600460008373ffffffffffffffffffffffffffffffffffffffff1673ffffffffffffffffffffffffffffffffffffffff168152602001908152602001600020600082015181600001556020820151816001019080519060200190610e89929190610fbe565b506040820151816002019080519060200190610ea6929190610fbe565b506060820151816003019080519060200190610ec3929190610fbe565b5060808201518160040160006101000a81548173ffffffffffffffffffffffffffffffffffffffff021916908373ffffffffffffffffffffffffffffffffffffffff16021790555060a08201518160040160146101000a81548160ff02191690831515021790555090505050505050565b60058181548110610f4157fe5b906000526020600020016000915054906101000a900473ffffffffffffffffffffffffffffffffffffffff1681565b6040518060c0016040528060008152602001606081526020016060815260200160608152602001600073ffffffffffffffffffffffffffffffffffffffff1681526020016000151581525090565b828054600181600116156101000203166002900490600052602060002090601f016020900481019282601f10610fff57805160ff191683800117855561102d565b8280016001018555821561102d579182015b8281111561102c578251825591602001919060010190611011565b5b50905061103a919061103e565b5090565b61106091905b8082111561105c576000816000905550600101611044565b5090565b90565b600081359050611072816116a7565b92915050565b600082601f83011261108957600080fd5b813561109c611097826115c4565b611597565b915080825260208301602083018583830111156110b857600080fd5b6110c3838284611654565b50505092915050565b6000813590506110db816116be565b92915050565b6000602082840312156110f357600080fd5b600061110184828501611063565b91505092915050565b6000806000806080858703121561112057600080fd5b600085013567ffffffffffffffff81111561113a57600080fd5b61114687828801611078565b945050602085013567ffffffffffffffff81111561116357600080fd5b61116f87828801611078565b935050604085013567ffffffffffffffff81111561118c57600080fd5b61119887828801611078565b92505060606111a987828801611063565b91505092959194509250565b6000602082840312156111c757600080fd5b60006111d5848285016110cc565b91505092915050565b6111e78161160c565b82525050565b6111f68161161e565b82525050565b6000611207826115f0565b61121181856115fb565b9350611221818560208601611663565b61122a81611696565b840191505092915050565b6000611242600e836115fb565b91507f416c7265616479206578697374730000000000000000000000000000000000006000830152602082019050919050565b6000611282600e836115fb565b91507f697420646f6573742065786973740000000000000000000000000000000000006000830152602082019050919050565b60006112c26015836115fb565b91507f416c726561647920796f75206172652061646d696e00000000000000000000006000830152602082019050919050565b60006113026015836115fb565b91507f416c726561647920796f7520617265206f776e657200000000000000000000006000830152602082019050919050565b6000611342602a836115fb565b91507f4f6e6c79206f776e65722069732068617665207468652061636365737320746f60008301527f20646f20616374696f6e000000000000000000000000000000000000000000006020830152604082019050919050565b60006113a8602a836115fb565b91507f4f6e6c792061646d696e2069732068617665207468652061636365737320746f60008301527f20646f20616374696f6e000000000000000000000000000000000000000000006020830152604082019050919050565b61140a8161164a565b82525050565b600060208201905061142560008301846111de565b92915050565b600060208201905061144060008301846111ed565b92915050565b6000602082019050818103600083015261145f81611235565b9050919050565b6000602082019050818103600083015261147f81611275565b9050919050565b6000602082019050818103600083015261149f816112b5565b9050919050565b600060208201905081810360008301526114bf816112f5565b9050919050565b600060208201905081810360008301526114df81611335565b9050919050565b600060208201905081810360008301526114ff8161139b565b9050919050565b600060208201905061151b6000830184611401565b92915050565b600060c0820190506115366000830189611401565b818103602083015261154881886111fc565b9050818103604083015261155c81876111fc565b9050818103606083015261157081866111fc565b905061157f60808301856111de565b61158c60a08301846111ed565b979650505050505050565b6000604051905081810181811067ffffffffffffffff821117156115ba57600080fd5b8060405250919050565b600067ffffffffffffffff8211156115db57600080fd5b601f19601f8301169050602081019050919050565b600081519050919050565b600082825260208201905092915050565b60006116178261162a565b9050919050565b60008115159050919050565b600073ffffffffffffffffffffffffffffffffffffffff82169050919050565b6000819050919050565b82818337600083830152505050565b60005b83811015611681578082015181840152602081019050611666565b83811115611690576000848401525b50505050565b6000601f19601f8301169050919050565b6116b08161160c565b81146116bb57600080fd5b50565b6116c78161164a565b81146116d257600080fd5b5056fea365627a7a72315820b3e8e7d0a80ad2041f58acd01fb646184714692dc4a0a8dde5278333e3638d766c6578706572696d656e74616cf564736f6c63430005100040",
  "source": "pragma solidity >=0.4.22 <0.7.0;\r\npragma experimental ABIEncoderV2;\r\nimport \"./ownable.sol\";\r\n\r\ncontract Hospital is ownable {\r\n    uint256 public index;\r\n    mapping(address => bool) isHospital;\r\n\r\n    struct hospital {\r\n        uint256 id;\r\n        string hname;\r\n        string haddress;\r\n        string hcontact;\r\n        address addr;\r\n        bool isApproved;\r\n    }\r\n    mapping(address => hospital) hospitals;\r\n    address[] public hospitalList;\r\n\r\n    modifier onlyHospital() {\r\n        require(isHospital[msg.sender]);\r\n        _;\r\n    }\r\n\r\n    function addHospital(\r\n        string memory _name,\r\n        string memory _haddress,\r\n        string memory _hcontract,\r\n        address _addr\r\n    ) public OnlyAdmin {\r\n        require(!isHospital[_addr], \"Already exists\");\r\n        hospitalList.push(_addr);\r\n        index = index + 1;\r\n        isHospital[_addr] = true;\r\n        hospitals[_addr] = hospital(\r\n            index,\r\n            _name,\r\n            _haddress,\r\n            _hcontract,\r\n            _addr,\r\n            true\r\n        );\r\n    }\r\n\r\n    function getHospitalbyId(uint256 _id)\r\n        public\r\n        view\r\n        returns (\r\n            uint256 id,\r\n            string memory hname,\r\n            string memory haddress,\r\n            string memory hcontract,\r\n            address addr,\r\n            bool isApproved\r\n        )\r\n    {\r\n        uint256 i = 0;\r\n        for (; i < hospitalList.length; i++) {\r\n            if (hospitals[hospitalList[i]].id == _id) {\r\n                break;\r\n            }\r\n        }\r\n        require(hospitals[hospitalList[i]].id == _id, \"it doest exist\");\r\n        hospital memory tmp = hospitals[hospitalList[i]];\r\n        return (\r\n            tmp.id,\r\n            tmp.hname,\r\n            tmp.haddress,\r\n            tmp.hcontact,\r\n            tmp.addr,\r\n            tmp.isApproved\r\n        );\r\n    }\r\n}\r\n",
  "sourcePath": "G:\\GP\\Projects\\Medical Record\\contracts\\hospital.sol",
  "compiler": {
    "name": "solc",
    "version": "0.5.16+commit.9c3226ce.Emscripten.clang"
  },
  "schemaVersion": "3.4.3",
  "updatedAt": "2021-09-14T12:24:25.325Z",
  "networkType": "ethereum",
  "devdoc": {
    "methods": {}
  },
  "userdoc": {
    "methods": {}
  }
}