{
  "contractName": "ownable",
  "abi": [
    {
      "inputs": [],
      "payable": false,
      "stateMutability": "nonpayable",
      "type": "constructor"
    },
    {
      "anonymous": false,
      "inputs": [
        {
          "indexed": true,
          "internalType": "address",
          "name": "Admin_address",
          "type": "address"
        }
      ],
      "name": "AdminAdded",
      "type": "event"
    },
    {
      "anonymous": false,
      "inputs": [
        {
          "indexed": true,
          "internalType": "address",
          "name": "Admin_address",
          "type": "address"
        }
      ],
      "name": "AdminRemoved",
      "type": "event"
    },
    {
      "anonymous": false,
      "inputs": [
        {
          "indexed": true,
          "internalType": "address",
          "name": "from",
          "type": "address"
        },
        {
          "indexed": true,
          "internalType": "address",
          "name": "to",
          "type": "address"
        }
      ],
      "name": "ownerChanges",
      "type": "event"
    },
    {
      "constant": true,
      "inputs": [],
      "name": "owner",
      "outputs": [
        {
          "internalType": "address",
          "name": "",
          "type": "address"
        }
      ],
      "payable": false,
      "stateMutability": "view",
      "type": "function"
    },
    {
      "constant": false,
      "inputs": [
        {
          "internalType": "address",
          "name": "_owner",
          "type": "address"
        }
      ],
      "name": "setOwner",
      "outputs": [
        {
          "internalType": "bool",
          "name": "success",
          "type": "bool"
        }
      ],
      "payable": false,
      "stateMutability": "nonpayable",
      "type": "function"
    },
    {
      "constant": false,
      "inputs": [
        {
          "internalType": "address",
          "name": "_address",
          "type": "address"
        }
      ],
      "name": "addAdmin",
      "outputs": [
        {
          "internalType": "bool",
          "name": "success",
          "type": "bool"
        }
      ],
      "payable": false,
      "stateMutability": "nonpayable",
      "type": "function"
    },
    {
      "constant": false,
      "inputs": [
        {
          "internalType": "address",
          "name": "_address",
          "type": "address"
        }
      ],
      "name": "removeAdmin",
      "outputs": [
        {
          "internalType": "bool",
          "name": "success",
          "type": "bool"
        }
      ],
      "payable": false,
      "stateMutability": "nonpayable",
      "type": "function"
    }
  ],
  "bytecode": "0x608060405234801561001057600080fd5b50336000806101000a81548173ffffffffffffffffffffffffffffffffffffffff021916908373ffffffffffffffffffffffffffffffffffffffff16021790555060018060003373ffffffffffffffffffffffffffffffffffffffff1673ffffffffffffffffffffffffffffffffffffffff16815260200190815260200160002060006101000a81548160ff021916908315150217905550610983806100b76000396000f3fe608060405234801561001057600080fd5b506004361061004c5760003560e01c806313af4035146100515780631785f53c1461008157806370480275146100b15780638da5cb5b146100e1575b600080fd5b61006b60048036036100669190810190610691565b6100ff565b604051610078919061083f565b60405180910390f35b61009b60048036036100969190810190610691565b6102a2565b6040516100a8919061083f565b60405180910390f35b6100cb60048036036100c69190810190610691565b61048b565b6040516100d8919061083f565b60405180910390f35b6100e9610657565b6040516100f69190610824565b60405180910390f35b60003373ffffffffffffffffffffffffffffffffffffffff166000809054906101000a900473ffffffffffffffffffffffffffffffffffffffff1673ffffffffffffffffffffffffffffffffffffffff1614610190576040517f08c379a00000000000000000000000000000000000000000000000000000000081526004016101879061089a565b60405180910390fd5b8173ffffffffffffffffffffffffffffffffffffffff163373ffffffffffffffffffffffffffffffffffffffff1614156101ff576040517f08c379a00000000000000000000000000000000000000000000000000000000081526004016101f69061087a565b60405180910390fd5b816000806101000a81548173ffffffffffffffffffffffffffffffffffffffff021916908373ffffffffffffffffffffffffffffffffffffffff1602179055508173ffffffffffffffffffffffffffffffffffffffff163373ffffffffffffffffffffffffffffffffffffffff167f5e89811b295d4a5353ccf3f888992d7bb4a7e394ee0f8a3c36303f2f4674cba260405160405180910390a360019050919050565b600060011515600160003373ffffffffffffffffffffffffffffffffffffffff1673ffffffffffffffffffffffffffffffffffffffff16815260200190815260200160002060009054906101000a900460ff16151514610337576040517f08c379a000000000000000000000000000000000000000000000000000000000815260040161032e906108ba565b60405180910390fd5b6000809054906101000a900473ffffffffffffffffffffffffffffffffffffffff1673ffffffffffffffffffffffffffffffffffffffff163373ffffffffffffffffffffffffffffffffffffffff16141561039157600080fd5b600160008373ffffffffffffffffffffffffffffffffffffffff1673ffffffffffffffffffffffffffffffffffffffff16815260200190815260200160002060009054906101000a900460ff166103e757600080fd5b6000600160008473ffffffffffffffffffffffffffffffffffffffff1673ffffffffffffffffffffffffffffffffffffffff16815260200190815260200160002060006101000a81548160ff0219169083151502179055508173ffffffffffffffffffffffffffffffffffffffff167fa3b62bc36326052d97ea62d63c3d60308ed4c3ea8ac079dd8499f1e9c4f80c0f60405160405180910390a260019050919050565b600060011515600160003373ffffffffffffffffffffffffffffffffffffffff1673ffffffffffffffffffffffffffffffffffffffff16815260200190815260200160002060009054906101000a900460ff16151514610520576040517f08c379a0000000000000000000000000000000000000000000000000000000008152600401610517906108ba565b60405180910390fd5b60011515600160008473ffffffffffffffffffffffffffffffffffffffff1673ffffffffffffffffffffffffffffffffffffffff16815260200190815260200160002060009054906101000a900460ff16151514156105b4576040517f08c379a00000000000000000000000000000000000000000000000000000000081526004016105ab9061085a565b60405180910390fd5b60018060008473ffffffffffffffffffffffffffffffffffffffff1673ffffffffffffffffffffffffffffffffffffffff16815260200190815260200160002060006101000a81548160ff0219169083151502179055508173ffffffffffffffffffffffffffffffffffffffff167f44d6d25963f097ad14f29f06854a01f575648a1ef82f30e562ccd3889717e33960405160405180910390a260019050919050565b6000809054906101000a900473ffffffffffffffffffffffffffffffffffffffff1681565b60008135905061068b81610929565b92915050565b6000602082840312156106a357600080fd5b60006106b18482850161067c565b91505092915050565b6106c3816108eb565b82525050565b6106d2816108fd565b82525050565b60006106e56015836108da565b91507f416c726561647920796f75206172652061646d696e00000000000000000000006000830152602082019050919050565b60006107256015836108da565b91507f416c726561647920796f7520617265206f776e657200000000000000000000006000830152602082019050919050565b6000610765602a836108da565b91507f4f6e6c79206f776e65722069732068617665207468652061636365737320746f60008301527f20646f20616374696f6e000000000000000000000000000000000000000000006020830152604082019050919050565b60006107cb602a836108da565b91507f4f6e6c792061646d696e2069732068617665207468652061636365737320746f60008301527f20646f20616374696f6e000000000000000000000000000000000000000000006020830152604082019050919050565b600060208201905061083960008301846106ba565b92915050565b600060208201905061085460008301846106c9565b92915050565b60006020820190508181036000830152610873816106d8565b9050919050565b6000602082019050818103600083015261089381610718565b9050919050565b600060208201905081810360008301526108b381610758565b9050919050565b600060208201905081810360008301526108d3816107be565b9050919050565b600082825260208201905092915050565b60006108f682610909565b9050919050565b60008115159050919050565b600073ffffffffffffffffffffffffffffffffffffffff82169050919050565b610932816108eb565b811461093d57600080fd5b5056fea365627a7a72315820262771a650ac771f421b372dbc8457aebc285dac00376a8d2a2d44e14425bcd86c6578706572696d656e74616cf564736f6c63430005100040",
  "source": "pragma solidity >=0.4.22 <0.7.0;\r\npragma experimental ABIEncoderV2;\r\n\r\ncontract ownable {\r\n    address public owner;\r\n    mapping(address => bool) isAdmin;\r\n    event ownerChanges(address indexed from, address indexed to);\r\n    event AdminAdded(address indexed Admin_address);\r\n    event AdminRemoved(address indexed Admin_address);\r\n\r\n    constructor() public {\r\n        owner = msg.sender;\r\n        isAdmin[msg.sender] = true;\r\n    }\r\n\r\n    modifier onlyOwner() {\r\n        require(\r\n            owner == msg.sender,\r\n            \"Only owner is have the access to do action\"\r\n        );\r\n        _;\r\n    }\r\n\r\n    modifier OnlyAdmin() {\r\n        require(\r\n            isAdmin[msg.sender] == true,\r\n            \"Only admin is have the access to do action\"\r\n        );\r\n        _;\r\n    }\r\n\r\n    function setOwner(address _owner) public onlyOwner returns (bool success) {\r\n        require(msg.sender != _owner, \"Already you are owner\");\r\n        owner = _owner;\r\n        emit ownerChanges(msg.sender, _owner);\r\n        return true;\r\n    }\r\n\r\n    function addAdmin(address _address)\r\n        public\r\n        OnlyAdmin\r\n        returns (bool success)\r\n    {\r\n        require(isAdmin[_address] != true, \"Already you are admin\");\r\n        isAdmin[_address] = true;\r\n        emit AdminAdded(_address);\r\n        return true;\r\n    }\r\n\r\n    function removeAdmin(address _address)\r\n        public\r\n        OnlyAdmin\r\n        returns (bool success)\r\n    {\r\n        require(msg.sender != owner);\r\n        require(isAdmin[_address]);\r\n        isAdmin[_address] = false;\r\n        emit AdminRemoved(_address);\r\n        return true;\r\n    }\r\n}\r\n",
  "sourcePath": "G:\\GP\\Projects\\Medical Record\\contracts\\ownable.sol",
  "compiler": {
    "name": "solc",
    "version": "0.5.16+commit.9c3226ce.Emscripten.clang"
  },
  "schemaVersion": "3.4.3",
  "updatedAt": "2021-09-14T12:24:25.320Z",
  "networkType": "ethereum",
  "devdoc": {
    "methods": {}
  },
  "userdoc": {
    "methods": {}
  }
}