{
  "contractName": "Patient",
  "abi": [
    {
      "anonymous": false,
      "inputs": [
        {
          "indexed": true,
          "internalType": "address",
          "name": "Admin_address",
          "type": "address"
        }
      ],
      "name": "AdminAdded",
      "type": "event"
    },
    {
      "anonymous": false,
      "inputs": [
        {
          "indexed": true,
          "internalType": "address",
          "name": "Admin_address",
          "type": "address"
        }
      ],
      "name": "AdminRemoved",
      "type": "event"
    },
    {
      "anonymous": false,
      "inputs": [
        {
          "indexed": true,
          "internalType": "address",
          "name": "from",
          "type": "address"
        },
        {
          "indexed": true,
          "internalType": "address",
          "name": "to",
          "type": "address"
        }
      ],
      "name": "ownerChanges",
      "type": "event"
    },
    {
      "constant": false,
      "inputs": [
        {
          "internalType": "address",
          "name": "_address",
          "type": "address"
        }
      ],
      "name": "addAdmin",
      "outputs": [
        {
          "internalType": "bool",
          "name": "success",
          "type": "bool"
        }
      ],
      "payable": false,
      "stateMutability": "nonpayable",
      "type": "function"
    },
    {
      "constant": false,
      "inputs": [
        {
          "internalType": "string",
          "name": "_name",
          "type": "string"
        },
        {
          "internalType": "string",
          "name": "_haddress",
          "type": "string"
        },
        {
          "internalType": "string",
          "name": "_hcontract",
          "type": "string"
        },
        {
          "internalType": "address",
          "name": "_addr",
          "type": "address"
        }
      ],
      "name": "addHospital",
      "outputs": [],
      "payable": false,
      "stateMutability": "nonpayable",
      "type": "function"
    },
    {
      "constant": true,
      "inputs": [
        {
          "internalType": "uint256",
          "name": "_id",
          "type": "uint256"
        }
      ],
      "name": "getHospitalbyId",
      "outputs": [
        {
          "internalType": "uint256",
          "name": "id",
          "type": "uint256"
        },
        {
          "internalType": "string",
          "name": "hname",
          "type": "string"
        },
        {
          "internalType": "string",
          "name": "haddress",
          "type": "string"
        },
        {
          "internalType": "string",
          "name": "hcontract",
          "type": "string"
        },
        {
          "internalType": "address",
          "name": "addr",
          "type": "address"
        },
        {
          "internalType": "bool",
          "name": "isApproved",
          "type": "bool"
        }
      ],
      "payable": false,
      "stateMutability": "view",
      "type": "function"
    },
    {
      "constant": true,
      "inputs": [
        {
          "internalType": "uint256",
          "name": "",
          "type": "uint256"
        }
      ],
      "name": "hospitalList",
      "outputs": [
        {
          "internalType": "address",
          "name": "",
          "type": "address"
        }
      ],
      "payable": false,
      "stateMutability": "view",
      "type": "function"
    },
    {
      "constant": true,
      "inputs": [],
      "name": "index",
      "outputs": [
        {
          "internalType": "uint256",
          "name": "",
          "type": "uint256"
        }
      ],
      "payable": false,
      "stateMutability": "view",
      "type": "function"
    },
    {
      "constant": true,
      "inputs": [],
      "name": "owner",
      "outputs": [
        {
          "internalType": "address",
          "name": "",
          "type": "address"
        }
      ],
      "payable": false,
      "stateMutability": "view",
      "type": "function"
    },
    {
      "constant": true,
      "inputs": [],
      "name": "pindex",
      "outputs": [
        {
          "internalType": "uint256",
          "name": "",
          "type": "uint256"
        }
      ],
      "payable": false,
      "stateMutability": "view",
      "type": "function"
    },
    {
      "constant": false,
      "inputs": [
        {
          "internalType": "address",
          "name": "_address",
          "type": "address"
        }
      ],
      "name": "removeAdmin",
      "outputs": [
        {
          "internalType": "bool",
          "name": "success",
          "type": "bool"
        }
      ],
      "payable": false,
      "stateMutability": "nonpayable",
      "type": "function"
    },
    {
      "constant": false,
      "inputs": [
        {
          "internalType": "address",
          "name": "_owner",
          "type": "address"
        }
      ],
      "name": "setOwner",
      "outputs": [
        {
          "internalType": "bool",
          "name": "success",
          "type": "bool"
        }
      ],
      "payable": false,
      "stateMutability": "nonpayable",
      "type": "function"
    },
    {
      "constant": false,
      "inputs": [
        {
          "internalType": "address",
          "name": "_addr",
          "type": "address"
        },
        {
          "internalType": "string",
          "name": "_hname",
          "type": "string"
        },
        {
          "internalType": "string",
          "name": "_reason",
          "type": "string"
        },
        {
          "internalType": "string",
          "name": "_admittedOn",
          "type": "string"
        },
        {
          "internalType": "string",
          "name": "_dischargedOn",
          "type": "string"
        },
        {
          "internalType": "string",
          "name": "_ipfs",
          "type": "string"
        }
      ],
      "name": "addRecord",
      "outputs": [],
      "payable": false,
      "stateMutability": "nonpayable",
      "type": "function"
    },
    {
      "constant": false,
      "inputs": [
        {
          "internalType": "string",
          "name": "_name",
          "type": "string"
        },
        {
          "internalType": "string",
          "name": "_phone",
          "type": "string"
        },
        {
          "internalType": "string",
          "name": "_gender",
          "type": "string"
        },
        {
          "internalType": "string",
          "name": "_dob",
          "type": "string"
        },
        {
          "internalType": "string",
          "name": "_bloodgroup",
          "type": "string"
        },
        {
          "internalType": "string",
          "name": "_allergies",
          "type": "string"
        }
      ],
      "name": "addPatient",
      "outputs": [],
      "payable": false,
      "stateMutability": "nonpayable",
      "type": "function"
    },
    {
      "constant": true,
      "inputs": [
        {
          "internalType": "address",
          "name": "_addr",
          "type": "address"
        }
      ],
      "name": "getPatientDetails",
      "outputs": [
        {
          "internalType": "string",
          "name": "_name",
          "type": "string"
        },
        {
          "internalType": "string",
          "name": "_phone",
          "type": "string"
        },
        {
          "internalType": "string",
          "name": "_gender",
          "type": "string"
        },
        {
          "internalType": "string",
          "name": "_dob",
          "type": "string"
        },
        {
          "internalType": "string",
          "name": "_bloodgroup",
          "type": "string"
        },
        {
          "internalType": "string",
          "name": "_allergies",
          "type": "string"
        }
      ],
      "payable": false,
      "stateMutability": "view",
      "type": "function"
    },
    {
      "constant": true,
      "inputs": [
        {
          "internalType": "address",
          "name": "_addr",
          "type": "address"
        }
      ],
      "name": "getPatientRecords",
      "outputs": [
        {
          "internalType": "string[]",
          "name": "_hname",
          "type": "string[]"
        },
        {
          "internalType": "string[]",
          "name": "_reason",
          "type": "string[]"
        },
        {
          "internalType": "string[]",
          "name": "_admittedOn",
          "type": "string[]"
        },
        {
          "internalType": "string[]",
          "name": "_dischargedOn",
          "type": "string[]"
        },
        {
          "internalType": "string[]",
          "name": "ipfs",
          "type": "string[]"
        }
      ],
      "payable": false,
      "stateMutability": "view",
      "type": "function"
    },
    {
      "constant": false,
      "inputs": [
        {
          "internalType": "address",
          "name": "_addr",
          "type": "address"
        }
      ],
      "name": "addAuth",
      "outputs": [
        {
          "internalType": "bool",
          "name": "success",
          "type": "bool"
        }
      ],
      "payable": false,
      "stateMutability": "nonpayable",
      "type": "function"
    },
    {
      "constant": false,
      "inputs": [
        {
          "internalType": "address",
          "name": "_addr",
          "type": "address"
        }
      ],
      "name": "revokeAuth",
      "outputs": [
        {
          "internalType": "bool",
          "name": "success",
          "type": "bool"
        }
      ],
      "payable": false,
      "stateMutability": "nonpayable",
      "type": "function"
    },
    {
      "constant": false,
      "inputs": [
        {
          "internalType": "address",
          "name": "_from",
          "type": "address"
        },
        {
          "internalType": "address",
          "name": "_to",
          "type": "address"
        }
      ],
      "name": "addAuthFromTo",
      "outputs": [
        {
          "internalType": "bool",
          "name": "success",
          "type": "bool"
        }
      ],
      "payable": false,
      "stateMutability": "nonpayable",
      "type": "function"
    },
    {
      "constant": false,
      "inputs": [
        {
          "internalType": "address",
          "name": "_from",
          "type": "address"
        },
        {
          "internalType": "address",
          "name": "_to",
          "type": "address"
        }
      ],
      "name": "removeAuthFromTo",
      "outputs": [
        {
          "internalType": "bool",
          "name": "success",
          "type": "bool"
        }
      ],
      "payable": false,
      "stateMutability": "nonpayable",
      "type": "function"
    }
  ],
  "bytecode": "0x60806040526000600655336000806101000a81548173ffffffffffffffffffffffffffffffffffffffff021916908373ffffffffffffffffffffffffffffffffffffffff16021790555060018060003373ffffffffffffffffffffffffffffffffffffffff1673ffffffffffffffffffffffffffffffffffffffff16815260200190815260200160002060006101000a81548160ff021916908315150217905550614410806100af6000396000f3fe608060405234801561001057600080fd5b506004361061010b5760003560e01c80638da5cb5b116100a2578063c82412b911610071578063c82412b9146102fb578063e0d23e111461032b578063ef264a211461035b578063efe2ccc114610377578063f8171dfa146103ac5761010b565b80638da5cb5b14610270578063a4f3cc231461028e578063a7aa43ba146102aa578063beef8d76146102df5761010b565b80632986c0e5116100de5780632986c0e5146101d45780635422224e146101f25780635658e43b1461022257806370480275146102405761010b565b80630c3c45a01461011057806313af4035146101405780631785f53c1461017057806318bd4847146101a0575b600080fd5b61012a60048036036101259190810190613694565b6103dc565b6040516101379190613f43565b60405180910390f35b61015a6004803603610155919081019061366b565b610632565b6040516101679190613f43565b60405180910390f35b61018a6004803603610185919081019061366b565b6107d5565b6040516101979190613f43565b60405180910390f35b6101ba60048036036101b5919081019061366b565b6109be565b6040516101cb959493929190613ecd565b60405180910390f35b6101dc6113dd565b6040516101e991906141a9565b60405180910390f35b61020c6004803603610207919081019061366b565b6113e3565b6040516102199190613f43565b60405180910390f35b61022a6115bc565b60405161023791906141a9565b60405180910390f35b61025a6004803603610255919081019061366b565b6115c2565b6040516102679190613f43565b60405180910390f35b61027861178e565b6040516102859190613eb2565b60405180910390f35b6102a860048036036102a3919081019061387c565b6117b3565b005b6102c460048036036102bf9190810190613995565b611c7b565b6040516102d6969594939291906141c4565b60405180910390f35b6102f960048036036102f491908101906137d1565b612110565b005b61031560048036036103109190810190613995565b612452565b6040516103229190613eb2565b60405180910390f35b61034560048036036103409190810190613694565b61248e565b6040516103529190613f43565b60405180910390f35b610375600480360361037091908101906136d0565b6126e5565b005b610391600480360361038c919081019061366b565b61296a565b6040516103a396959493929190613f5e565b60405180910390f35b6103c660048036036103c1919081019061366b565b6132ac565b6040516103d39190613f43565b60405180910390f35b6000600860008473ffffffffffffffffffffffffffffffffffffffff1673ffffffffffffffffffffffffffffffffffffffff16815260200190815260200160002060008373ffffffffffffffffffffffffffffffffffffffff1673ffffffffffffffffffffffffffffffffffffffff16815260200190815260200160002060009054906101000a900460ff1661047157600080fd5b8173ffffffffffffffffffffffffffffffffffffffff168373ffffffffffffffffffffffffffffffffffffffff1614156104aa57600080fd5b600860008473ffffffffffffffffffffffffffffffffffffffff1673ffffffffffffffffffffffffffffffffffffffff16815260200190815260200160002060003373ffffffffffffffffffffffffffffffffffffffff1673ffffffffffffffffffffffffffffffffffffffff16815260200190815260200160002060009054906101000a900460ff1661053d57600080fd5b600a60008473ffffffffffffffffffffffffffffffffffffffff1673ffffffffffffffffffffffffffffffffffffffff16815260200190815260200160002060009054906101000a900460ff1661059357600080fd5b6000600860008573ffffffffffffffffffffffffffffffffffffffff1673ffffffffffffffffffffffffffffffffffffffff16815260200190815260200160002060008473ffffffffffffffffffffffffffffffffffffffff1673ffffffffffffffffffffffffffffffffffffffff16815260200190815260200160002060006101000a81548160ff0219169083151502179055506001905092915050565b60003373ffffffffffffffffffffffffffffffffffffffff166000809054906101000a900473ffffffffffffffffffffffffffffffffffffffff1673ffffffffffffffffffffffffffffffffffffffff16146106c3576040517f08c379a00000000000000000000000000000000000000000000000000000000081526004016106ba90614169565b60405180910390fd5b8173ffffffffffffffffffffffffffffffffffffffff163373ffffffffffffffffffffffffffffffffffffffff161415610732576040517f08c379a000000000000000000000000000000000000000000000000000000000815260040161072990614129565b60405180910390fd5b816000806101000a81548173ffffffffffffffffffffffffffffffffffffffff021916908373ffffffffffffffffffffffffffffffffffffffff1602179055508173ffffffffffffffffffffffffffffffffffffffff163373ffffffffffffffffffffffffffffffffffffffff167f5e89811b295d4a5353ccf3f888992d7bb4a7e394ee0f8a3c36303f2f4674cba260405160405180910390a360019050919050565b600060011515600160003373ffffffffffffffffffffffffffffffffffffffff1673ffffffffffffffffffffffffffffffffffffffff16815260200190815260200160002060009054906101000a900460ff1615151461086a576040517f08c379a000000000000000000000000000000000000000000000000000000000815260040161086190614189565b60405180910390fd5b6000809054906101000a900473ffffffffffffffffffffffffffffffffffffffff1673ffffffffffffffffffffffffffffffffffffffff163373ffffffffffffffffffffffffffffffffffffffff1614156108c457600080fd5b600160008373ffffffffffffffffffffffffffffffffffffffff1673ffffffffffffffffffffffffffffffffffffffff16815260200190815260200160002060009054906101000a900460ff1661091a57600080fd5b6000600160008473ffffffffffffffffffffffffffffffffffffffff1673ffffffffffffffffffffffffffffffffffffffff16815260200190815260200160002060006101000a81548160ff0219169083151502179055508173ffffffffffffffffffffffffffffffffffffffff167fa3b62bc36326052d97ea62d63c3d60308ed4c3ea8ac079dd8499f1e9c4f80c0f60405160405180910390a260019050919050565b6060806060806060600860008773ffffffffffffffffffffffffffffffffffffffff1673ffffffffffffffffffffffffffffffffffffffff16815260200190815260200160002060003373ffffffffffffffffffffffffffffffffffffffff1673ffffffffffffffffffffffffffffffffffffffff16815260200190815260200160002060009054906101000a900460ff16610a8f576040517f08c379a0000000000000000000000000000000000000000000000000000000008152600401610a86906140c9565b60405180910390fd5b600a60008773ffffffffffffffffffffffffffffffffffffffff1673ffffffffffffffffffffffffffffffffffffffff16815260200190815260200160002060009054906101000a900460ff16610b1b576040517f08c379a0000000000000000000000000000000000000000000000000000000008152600401610b1290614009565b60405180910390fd5b6000600960008873ffffffffffffffffffffffffffffffffffffffff1673ffffffffffffffffffffffffffffffffffffffff1681526020019081526020016000206007018054905011610ba3576040517f08c379a0000000000000000000000000000000000000000000000000000000008152600401610b9a90614029565b60405180910390fd5b6060600960008873ffffffffffffffffffffffffffffffffffffffff1673ffffffffffffffffffffffffffffffffffffffff16815260200190815260200160002060070180549050604051908082528060200260200182016040528015610c1e57816020015b6060815260200190600190039081610c095790505b5090506060600960008973ffffffffffffffffffffffffffffffffffffffff1673ffffffffffffffffffffffffffffffffffffffff16815260200190815260200160002060070180549050604051908082528060200260200182016040528015610c9c57816020015b6060815260200190600190039081610c875790505b5090506060600960008a73ffffffffffffffffffffffffffffffffffffffff1673ffffffffffffffffffffffffffffffffffffffff16815260200190815260200160002060070180549050604051908082528060200260200182016040528015610d1a57816020015b6060815260200190600190039081610d055790505b5090506060600960008b73ffffffffffffffffffffffffffffffffffffffff1673ffffffffffffffffffffffffffffffffffffffff16815260200190815260200160002060070180549050604051908082528060200260200182016040528015610d9857816020015b6060815260200190600190039081610d835790505b5090506060600960008c73ffffffffffffffffffffffffffffffffffffffff1673ffffffffffffffffffffffffffffffffffffffff16815260200190815260200160002060070180549050604051908082528060200260200182016040528015610e1657816020015b6060815260200190600190039081610e015790505b50905060008090505b600960008d73ffffffffffffffffffffffffffffffffffffffff1673ffffffffffffffffffffffffffffffffffffffff168152602001908152602001600020600701805490508110156113bf57600960008d73ffffffffffffffffffffffffffffffffffffffff1673ffffffffffffffffffffffffffffffffffffffff1681526020019081526020016000206007018181548110610eb957fe5b90600052602060002090600502016000018054600181600116156101000203166002900480601f016020809104026020016040519081016040528092919081815260200182805460018160011615610100020316600290048015610f5e5780601f10610f3357610100808354040283529160200191610f5e565b820191906000526020600020905b815481529060010190602001808311610f4157829003601f168201915b5050505050868281518110610f6f57fe5b6020026020010181905250600960008d73ffffffffffffffffffffffffffffffffffffffff1673ffffffffffffffffffffffffffffffffffffffff1681526020019081526020016000206007018181548110610fc757fe5b90600052602060002090600502016001018054600181600116156101000203166002900480601f01602080910402602001604051908101604052809291908181526020018280546001816001161561010002031660029004801561106c5780601f106110415761010080835404028352916020019161106c565b820191906000526020600020905b81548152906001019060200180831161104f57829003601f168201915b505050505085828151811061107d57fe5b6020026020010181905250600960008d73ffffffffffffffffffffffffffffffffffffffff1673ffffffffffffffffffffffffffffffffffffffff16815260200190815260200160002060070181815481106110d557fe5b90600052602060002090600502016002018054600181600116156101000203166002900480601f01602080910402602001604051908101604052809291908181526020018280546001816001161561010002031660029004801561117a5780601f1061114f5761010080835404028352916020019161117a565b820191906000526020600020905b81548152906001019060200180831161115d57829003601f168201915b505050505084828151811061118b57fe5b6020026020010181905250600960008d73ffffffffffffffffffffffffffffffffffffffff1673ffffffffffffffffffffffffffffffffffffffff16815260200190815260200160002060070181815481106111e357fe5b90600052602060002090600502016003018054600181600116156101000203166002900480601f0160208091040260200160405190810160405280929190818152602001828054600181600116156101000203166002900480156112885780601f1061125d57610100808354040283529160200191611288565b820191906000526020600020905b81548152906001019060200180831161126b57829003601f168201915b505050505083828151811061129957fe5b6020026020010181905250600960008d73ffffffffffffffffffffffffffffffffffffffff1673ffffffffffffffffffffffffffffffffffffffff16815260200190815260200160002060070181815481106112f157fe5b90600052602060002090600502016004018054600181600116156101000203166002900480601f0160208091040260200160405190810160405280929190818152602001828054600181600116156101000203166002900480156113965780601f1061136b57610100808354040283529160200191611396565b820191906000526020600020905b81548152906001019060200180831161137957829003601f168201915b50505050508282815181106113a757fe5b60200260200101819052508080600101915050610e1f565b50848484848499509950995099509950505050505091939590929450565b60025481565b6000600860003373ffffffffffffffffffffffffffffffffffffffff1673ffffffffffffffffffffffffffffffffffffffff16815260200190815260200160002060008373ffffffffffffffffffffffffffffffffffffffff1673ffffffffffffffffffffffffffffffffffffffff16815260200190815260200160002060009054906101000a900460ff16156114af576040517f08c379a00000000000000000000000000000000000000000000000000000000081526004016114a690614149565b60405180910390fd5b8173ffffffffffffffffffffffffffffffffffffffff163373ffffffffffffffffffffffffffffffffffffffff16141561151e576040517f08c379a000000000000000000000000000000000000000000000000000000000815260040161151590613fe9565b60405180910390fd5b6001600860003373ffffffffffffffffffffffffffffffffffffffff1673ffffffffffffffffffffffffffffffffffffffff16815260200190815260200160002060008473ffffffffffffffffffffffffffffffffffffffff1673ffffffffffffffffffffffffffffffffffffffff16815260200190815260200160002060006101000a81548160ff02191690831515021790555060019050919050565b60065481565b600060011515600160003373ffffffffffffffffffffffffffffffffffffffff1673ffffffffffffffffffffffffffffffffffffffff16815260200190815260200160002060009054906101000a900460ff16151514611657576040517f08c379a000000000000000000000000000000000000000000000000000000000815260040161164e90614189565b60405180910390fd5b60011515600160008473ffffffffffffffffffffffffffffffffffffffff1673ffffffffffffffffffffffffffffffffffffffff16815260200190815260200160002060009054906101000a900460ff16151514156116eb576040517f08c379a00000000000000000000000000000000000000000000000000000000081526004016116e2906140e9565b60405180910390fd5b60018060008473ffffffffffffffffffffffffffffffffffffffff1673ffffffffffffffffffffffffffffffffffffffff16815260200190815260200160002060006101000a81548160ff0219169083151502179055508173ffffffffffffffffffffffffffffffffffffffff167f44d6d25963f097ad14f29f06854a01f575648a1ef82f30e562ccd3889717e33960405160405180910390a260019050919050565b6000809054906101000a900473ffffffffffffffffffffffffffffffffffffffff1681565b600a60003373ffffffffffffffffffffffffffffffffffffffff1673ffffffffffffffffffffffffffffffffffffffff16815260200190815260200160002060009054906101000a900460ff1615611840576040517f08c379a000000000000000000000000000000000000000000000000000000000815260040161183790614109565b60405180910390fd5b60073390806001815401808255809150509060018203906000526020600020016000909192909190916101000a81548173ffffffffffffffffffffffffffffffffffffffff021916908373ffffffffffffffffffffffffffffffffffffffff160217905550506001600654016006819055506001600a60003373ffffffffffffffffffffffffffffffffffffffff1673ffffffffffffffffffffffffffffffffffffffff16815260200190815260200160002060006101000a81548160ff0219169083151502179055506001600860003373ffffffffffffffffffffffffffffffffffffffff1673ffffffffffffffffffffffffffffffffffffffff16815260200190815260200160002060003373ffffffffffffffffffffffffffffffffffffffff1673ffffffffffffffffffffffffffffffffffffffff16815260200190815260200160002060006101000a81548160ff021916908315150217905550600254600960003373ffffffffffffffffffffffffffffffffffffffff1673ffffffffffffffffffffffffffffffffffffffff1681526020019081526020016000206000018190555085600960003373ffffffffffffffffffffffffffffffffffffffff1673ffffffffffffffffffffffffffffffffffffffff1681526020019081526020016000206001019080519060200190611a3e929190613418565b5084600960003373ffffffffffffffffffffffffffffffffffffffff1673ffffffffffffffffffffffffffffffffffffffff1681526020019081526020016000206002019080519060200190611a95929190613418565b5083600960003373ffffffffffffffffffffffffffffffffffffffff1673ffffffffffffffffffffffffffffffffffffffff1681526020019081526020016000206003019080519060200190611aec929190613418565b5082600960003373ffffffffffffffffffffffffffffffffffffffff1673ffffffffffffffffffffffffffffffffffffffff1681526020019081526020016000206004019080519060200190611b43929190613418565b5081600960003373ffffffffffffffffffffffffffffffffffffffff1673ffffffffffffffffffffffffffffffffffffffff1681526020019081526020016000206005019080519060200190611b9a929190613418565b5080600960003373ffffffffffffffffffffffffffffffffffffffff1673ffffffffffffffffffffffffffffffffffffffff1681526020019081526020016000206006019080519060200190611bf1929190613418565b5033600960003373ffffffffffffffffffffffffffffffffffffffff1673ffffffffffffffffffffffffffffffffffffffff16815260200190815260200160002060080160006101000a81548173ffffffffffffffffffffffffffffffffffffffff021916908373ffffffffffffffffffffffffffffffffffffffff160217905550505050505050565b6000606080606060008060008090505b600580549050811015611d2b57876004600060058481548110611caa57fe5b9060005260206000200160009054906101000a900473ffffffffffffffffffffffffffffffffffffffff1673ffffffffffffffffffffffffffffffffffffffff1673ffffffffffffffffffffffffffffffffffffffff168152602001908152602001600020600001541415611d1e57611d2b565b8080600101915050611c8b565b876004600060058481548110611d3d57fe5b9060005260206000200160009054906101000a900473ffffffffffffffffffffffffffffffffffffffff1673ffffffffffffffffffffffffffffffffffffffff1673ffffffffffffffffffffffffffffffffffffffff1681526020019081526020016000206000015414611de6576040517f08c379a0000000000000000000000000000000000000000000000000000000008152600401611ddd90614089565b60405180910390fd5b611dee613498565b6004600060058481548110611dff57fe5b9060005260206000200160009054906101000a900473ffffffffffffffffffffffffffffffffffffffff1673ffffffffffffffffffffffffffffffffffffffff1673ffffffffffffffffffffffffffffffffffffffff1681526020019081526020016000206040518060c001604052908160008201548152602001600182018054600181600116156101000203166002900480601f016020809104026020016040519081016040528092919081815260200182805460018160011615610100020316600290048015611f125780601f10611ee757610100808354040283529160200191611f12565b820191906000526020600020905b815481529060010190602001808311611ef557829003601f168201915b50505050508152602001600282018054600181600116156101000203166002900480601f016020809104026020016040519081016040528092919081815260200182805460018160011615610100020316600290048015611fb45780601f10611f8957610100808354040283529160200191611fb4565b820191906000526020600020905b815481529060010190602001808311611f9757829003601f168201915b50505050508152602001600382018054600181600116156101000203166002900480601f0160208091040260200160405190810160405280929190818152602001828054600181600116156101000203166002900480156120565780601f1061202b57610100808354040283529160200191612056565b820191906000526020600020905b81548152906001019060200180831161203957829003601f168201915b505050505081526020016004820160009054906101000a900473ffffffffffffffffffffffffffffffffffffffff1673ffffffffffffffffffffffffffffffffffffffff1673ffffffffffffffffffffffffffffffffffffffff1681526020016004820160149054906101000a900460ff1615151515815250509050806000015181602001518260400151836060015184608001518560a00151849450839350829250975097509750975097509750505091939550919395565b60011515600160003373ffffffffffffffffffffffffffffffffffffffff1673ffffffffffffffffffffffffffffffffffffffff16815260200190815260200160002060009054906101000a900460ff161515146121a3576040517f08c379a000000000000000000000000000000000000000000000000000000000815260040161219a90614189565b60405180910390fd5b600360008273ffffffffffffffffffffffffffffffffffffffff1673ffffffffffffffffffffffffffffffffffffffff16815260200190815260200160002060009054906101000a900460ff1615612230576040517f08c379a000000000000000000000000000000000000000000000000000000000815260040161222790614069565b60405180910390fd5b60058190806001815401808255809150509060018203906000526020600020016000909192909190916101000a81548173ffffffffffffffffffffffffffffffffffffffff021916908373ffffffffffffffffffffffffffffffffffffffff160217905550506001600254016002819055506001600360008373ffffffffffffffffffffffffffffffffffffffff1673ffffffffffffffffffffffffffffffffffffffff16815260200190815260200160002060006101000a81548160ff0219169083151502179055506040518060c0016040528060025481526020018581526020018481526020018381526020018273ffffffffffffffffffffffffffffffffffffffff16815260200160011515815250600460008373ffffffffffffffffffffffffffffffffffffffff1673ffffffffffffffffffffffffffffffffffffffff1681526020019081526020016000206000820151816000015560208201518160010190805190602001906123a79291906134e6565b5060408201518160020190805190602001906123c49291906134e6565b5060608201518160030190805190602001906123e19291906134e6565b5060808201518160040160006101000a81548173ffffffffffffffffffffffffffffffffffffffff021916908373ffffffffffffffffffffffffffffffffffffffff16021790555060a08201518160040160146101000a81548160ff02191690831515021790555090505050505050565b6005818154811061245f57fe5b906000526020600020016000915054906101000a900473ffffffffffffffffffffffffffffffffffffffff1681565b6000600860008473ffffffffffffffffffffffffffffffffffffffff1673ffffffffffffffffffffffffffffffffffffffff16815260200190815260200160002060008373ffffffffffffffffffffffffffffffffffffffff1673ffffffffffffffffffffffffffffffffffffffff16815260200190815260200160002060009054906101000a900460ff161561252457600080fd5b8173ffffffffffffffffffffffffffffffffffffffff168373ffffffffffffffffffffffffffffffffffffffff16141561255d57600080fd5b600860008473ffffffffffffffffffffffffffffffffffffffff1673ffffffffffffffffffffffffffffffffffffffff16815260200190815260200160002060003373ffffffffffffffffffffffffffffffffffffffff1673ffffffffffffffffffffffffffffffffffffffff16815260200190815260200160002060009054906101000a900460ff166125f057600080fd5b600a60008473ffffffffffffffffffffffffffffffffffffffff1673ffffffffffffffffffffffffffffffffffffffff16815260200190815260200160002060009054906101000a900460ff1661264657600080fd5b6001600860008573ffffffffffffffffffffffffffffffffffffffff1673ffffffffffffffffffffffffffffffffffffffff16815260200190815260200160002060008473ffffffffffffffffffffffffffffffffffffffff1673ffffffffffffffffffffffffffffffffffffffff16815260200190815260200160002060006101000a81548160ff0219169083151502179055506001905092915050565b600a60008773ffffffffffffffffffffffffffffffffffffffff1673ffffffffffffffffffffffffffffffffffffffff16815260200190815260200160002060009054906101000a900460ff16612771576040517f08c379a000000000000000000000000000000000000000000000000000000000815260040161276890614049565b60405180910390fd5b600860008773ffffffffffffffffffffffffffffffffffffffff1673ffffffffffffffffffffffffffffffffffffffff16815260200190815260200160002060003373ffffffffffffffffffffffffffffffffffffffff1673ffffffffffffffffffffffffffffffffffffffff16815260200190815260200160002060009054906101000a900460ff1661283a576040517f08c379a0000000000000000000000000000000000000000000000000000000008152600401612831906140a9565b60405180910390fd5b600960008773ffffffffffffffffffffffffffffffffffffffff1673ffffffffffffffffffffffffffffffffffffffff1681526020019081526020016000206007016040518060a00160405280878152602001868152602001858152602001848152602001838152509080600181540180825580915050906001820390600052602060002090600502016000909192909190915060008201518160000190805190602001906128ea9291906134e6565b5060208201518160010190805190602001906129079291906134e6565b5060408201518160020190805190602001906129249291906134e6565b5060608201518160030190805190602001906129419291906134e6565b50608082015181600401908051906020019061295e9291906134e6565b50505050505050505050565b606080606080606080600860008873ffffffffffffffffffffffffffffffffffffffff1673ffffffffffffffffffffffffffffffffffffffff16815260200190815260200160002060003373ffffffffffffffffffffffffffffffffffffffff1673ffffffffffffffffffffffffffffffffffffffff16815260200190815260200160002060009054906101000a900460ff16612a0657600080fd5b600a60008873ffffffffffffffffffffffffffffffffffffffff1673ffffffffffffffffffffffffffffffffffffffff16815260200190815260200160002060009054906101000a900460ff16612a5c57600080fd5b612a64613566565b600960008973ffffffffffffffffffffffffffffffffffffffff1673ffffffffffffffffffffffffffffffffffffffff1681526020019081526020016000206040518061012001604052908160008201548152602001600182018054600181600116156101000203166002900480601f016020809104026020016040519081016040528092919081815260200182805460018160011615610100020316600290048015612b525780601f10612b2757610100808354040283529160200191612b52565b820191906000526020600020905b815481529060010190602001808311612b3557829003601f168201915b50505050508152602001600282018054600181600116156101000203166002900480601f016020809104026020016040519081016040528092919081815260200182805460018160011615610100020316600290048015612bf45780601f10612bc957610100808354040283529160200191612bf4565b820191906000526020600020905b815481529060010190602001808311612bd757829003601f168201915b50505050508152602001600382018054600181600116156101000203166002900480601f016020809104026020016040519081016040528092919081815260200182805460018160011615610100020316600290048015612c965780601f10612c6b57610100808354040283529160200191612c96565b820191906000526020600020905b815481529060010190602001808311612c7957829003601f168201915b50505050508152602001600482018054600181600116156101000203166002900480601f016020809104026020016040519081016040528092919081815260200182805460018160011615610100020316600290048015612d385780601f10612d0d57610100808354040283529160200191612d38565b820191906000526020600020905b815481529060010190602001808311612d1b57829003601f168201915b50505050508152602001600582018054600181600116156101000203166002900480601f016020809104026020016040519081016040528092919081815260200182805460018160011615610100020316600290048015612dda5780601f10612daf57610100808354040283529160200191612dda565b820191906000526020600020905b815481529060010190602001808311612dbd57829003601f168201915b50505050508152602001600682018054600181600116156101000203166002900480601f016020809104026020016040519081016040528092919081815260200182805460018160011615610100020316600290048015612e7c5780601f10612e5157610100808354040283529160200191612e7c565b820191906000526020600020905b815481529060010190602001808311612e5f57829003601f168201915b5050505050815260200160078201805480602002602001604051908101604052809291908181526020016000905b8282101561320657838290600052602060002090600502016040518060a0016040529081600082018054600181600116156101000203166002900480601f016020809104026020016040519081016040528092919081815260200182805460018160011615610100020316600290048015612f665780601f10612f3b57610100808354040283529160200191612f66565b820191906000526020600020905b815481529060010190602001808311612f4957829003601f168201915b50505050508152602001600182018054600181600116156101000203166002900480601f0160208091040260200160405190810160405280929190818152602001828054600181600116156101000203166002900480156130085780601f10612fdd57610100808354040283529160200191613008565b820191906000526020600020905b815481529060010190602001808311612feb57829003601f168201915b50505050508152602001600282018054600181600116156101000203166002900480601f0160208091040260200160405190810160405280929190818152602001828054600181600116156101000203166002900480156130aa5780601f1061307f576101008083540402835291602001916130aa565b820191906000526020600020905b81548152906001019060200180831161308d57829003601f168201915b50505050508152602001600382018054600181600116156101000203166002900480601f01602080910402602001604051908101604052809291908181526020018280546001816001161561010002031660029004801561314c5780601f106131215761010080835404028352916020019161314c565b820191906000526020600020905b81548152906001019060200180831161312f57829003601f168201915b50505050508152602001600482018054600181600116156101000203166002900480601f0160208091040260200160405190810160405280929190818152602001828054600181600116156101000203166002900480156131ee5780601f106131c3576101008083540402835291602001916131ee565b820191906000526020600020905b8154815290600101906020018083116131d157829003601f168201915b50505050508152505081526020019060010190612eaa565b5050505081526020016008820160009054906101000a900473ffffffffffffffffffffffffffffffffffffffff1673ffffffffffffffffffffffffffffffffffffffff1673ffffffffffffffffffffffffffffffffffffffff1681525050905080602001518160400151826060015183608001518460a001518560c001518595508494508393508292508191508090509650965096509650965096505091939550919395565b60008173ffffffffffffffffffffffffffffffffffffffff163373ffffffffffffffffffffffffffffffffffffffff1614156132e757600080fd5b600860003373ffffffffffffffffffffffffffffffffffffffff1673ffffffffffffffffffffffffffffffffffffffff16815260200190815260200160002060008373ffffffffffffffffffffffffffffffffffffffff1673ffffffffffffffffffffffffffffffffffffffff16815260200190815260200160002060009054906101000a900460ff1661337a57600080fd5b6000600860003373ffffffffffffffffffffffffffffffffffffffff1673ffffffffffffffffffffffffffffffffffffffff16815260200190815260200160002060008473ffffffffffffffffffffffffffffffffffffffff1673ffffffffffffffffffffffffffffffffffffffff16815260200190815260200160002060006101000a81548160ff02191690831515021790555060019050919050565b828054600181600116156101000203166002900490600052602060002090601f016020900481019282601f1061345957805160ff1916838001178555613487565b82800160010185558215613487579182015b8281111561348657825182559160200191906001019061346b565b5b50905061349491906135c8565b5090565b6040518060c0016040528060008152602001606081526020016060815260200160608152602001600073ffffffffffffffffffffffffffffffffffffffff1681526020016000151581525090565b828054600181600116156101000203166002900490600052602060002090601f016020900481019282601f1061352757805160ff1916838001178555613555565b82800160010185558215613555579182015b82811115613554578251825591602001919060010190613539565b5b50905061356291906135c8565b5090565b6040518061012001604052806000815260200160608152602001606081526020016060815260200160608152602001606081526020016060815260200160608152602001600073ffffffffffffffffffffffffffffffffffffffff1681525090565b6135ea91905b808211156135e65760008160009055506001016135ce565b5090565b90565b6000813590506135fc8161439f565b92915050565b600082601f83011261361357600080fd5b813561362661362182614267565b61423a565b9150808252602083016020830185838301111561364257600080fd5b61364d83828461434c565b50505092915050565b600081359050613665816143b6565b92915050565b60006020828403121561367d57600080fd5b600061368b848285016135ed565b91505092915050565b600080604083850312156136a757600080fd5b60006136b5858286016135ed565b92505060206136c6858286016135ed565b9150509250929050565b60008060008060008060c087890312156136e957600080fd5b60006136f789828a016135ed565b965050602087013567ffffffffffffffff81111561371457600080fd5b61372089828a01613602565b955050604087013567ffffffffffffffff81111561373d57600080fd5b61374989828a01613602565b945050606087013567ffffffffffffffff81111561376657600080fd5b61377289828a01613602565b935050608087013567ffffffffffffffff81111561378f57600080fd5b61379b89828a01613602565b92505060a087013567ffffffffffffffff8111156137b857600080fd5b6137c489828a01613602565b9150509295509295509295565b600080600080608085870312156137e757600080fd5b600085013567ffffffffffffffff81111561380157600080fd5b61380d87828801613602565b945050602085013567ffffffffffffffff81111561382a57600080fd5b61383687828801613602565b935050604085013567ffffffffffffffff81111561385357600080fd5b61385f87828801613602565b9250506060613870878288016135ed565b91505092959194509250565b60008060008060008060c0878903121561389557600080fd5b600087013567ffffffffffffffff8111156138af57600080fd5b6138bb89828a01613602565b965050602087013567ffffffffffffffff8111156138d857600080fd5b6138e489828a01613602565b955050604087013567ffffffffffffffff81111561390157600080fd5b61390d89828a01613602565b945050606087013567ffffffffffffffff81111561392a57600080fd5b61393689828a01613602565b935050608087013567ffffffffffffffff81111561395357600080fd5b61395f89828a01613602565b92505060a087013567ffffffffffffffff81111561397c57600080fd5b61398889828a01613602565b9150509295509295509295565b6000602082840312156139a757600080fd5b60006139b584828501613656565b91505092915050565b60006139ca8383613a9e565b905092915050565b6139db81614304565b82525050565b60006139ec826142a3565b6139f681856142d1565b935083602082028501613a0885614293565b8060005b85811015613a445784840389528151613a2585826139be565b9450613a30836142c4565b925060208a01995050600181019050613a0c565b50829750879550505050505092915050565b613a5f81614316565b82525050565b6000613a70826142b9565b613a7a81856142f3565b9350613a8a81856020860161435b565b613a938161438e565b840191505092915050565b6000613aa9826142ae565b613ab381856142e2565b9350613ac381856020860161435b565b613acc8161438e565b840191505092915050565b6000613ae46011836142f3565b91507f43616e742061646420796f757273656c660000000000000000000000000000006000830152602082019050919050565b6000613b24600e836142f3565b91507f4e6f7420726567697374657265640000000000000000000000000000000000006000830152602082019050919050565b6000613b64600a836142f3565b91507f4e6f207265636f726473000000000000000000000000000000000000000000006000830152602082019050919050565b6000613ba46013836142f3565b91507f55736572206e6f742072656769737465726564000000000000000000000000006000830152602082019050919050565b6000613be4600e836142f3565b91507f416c7265616479206578697374730000000000000000000000000000000000006000830152602082019050919050565b6000613c24600e836142f3565b91507f697420646f6573742065786973740000000000000000000000000000000000006000830152602082019050919050565b6000613c64600c836142f3565b91507f6e6f207065726d7369696f6e00000000000000000000000000000000000000006000830152602082019050919050565b6000613ca4600c836142f3565b91507f4e6f207065726d7369696f6e00000000000000000000000000000000000000006000830152602082019050919050565b6000613ce46015836142f3565b91507f416c726561647920796f75206172652061646d696e00000000000000000000006000830152602082019050919050565b6000613d24600c836142f3565b91507f416c7265616479206865726500000000000000000000000000000000000000006000830152602082019050919050565b6000613d646015836142f3565b91507f416c726561647920796f7520617265206f776e657200000000000000000000006000830152602082019050919050565b6000613da46012836142f3565b91507f416c726561647920417574686f726973656400000000000000000000000000006000830152602082019050919050565b6000613de4602a836142f3565b91507f4f6e6c79206f776e65722069732068617665207468652061636365737320746f60008301527f20646f20616374696f6e000000000000000000000000000000000000000000006020830152604082019050919050565b6000613e4a602a836142f3565b91507f4f6e6c792061646d696e2069732068617665207468652061636365737320746f60008301527f20646f20616374696f6e000000000000000000000000000000000000000000006020830152604082019050919050565b613eac81614342565b82525050565b6000602082019050613ec760008301846139d2565b92915050565b600060a0820190508181036000830152613ee781886139e1565b90508181036020830152613efb81876139e1565b90508181036040830152613f0f81866139e1565b90508181036060830152613f2381856139e1565b90508181036080830152613f3781846139e1565b90509695505050505050565b6000602082019050613f586000830184613a56565b92915050565b600060c0820190508181036000830152613f788189613a65565b90508181036020830152613f8c8188613a65565b90508181036040830152613fa08187613a65565b90508181036060830152613fb48186613a65565b90508181036080830152613fc88185613a65565b905081810360a0830152613fdc8184613a65565b9050979650505050505050565b6000602082019050818103600083015261400281613ad7565b9050919050565b6000602082019050818103600083015261402281613b17565b9050919050565b6000602082019050818103600083015261404281613b57565b9050919050565b6000602082019050818103600083015261406281613b97565b9050919050565b6000602082019050818103600083015261408281613bd7565b9050919050565b600060208201905081810360008301526140a281613c17565b9050919050565b600060208201905081810360008301526140c281613c57565b9050919050565b600060208201905081810360008301526140e281613c97565b9050919050565b6000602082019050818103600083015261410281613cd7565b9050919050565b6000602082019050818103600083015261412281613d17565b9050919050565b6000602082019050818103600083015261414281613d57565b9050919050565b6000602082019050818103600083015261416281613d97565b9050919050565b6000602082019050818103600083015261418281613dd7565b9050919050565b600060208201905081810360008301526141a281613e3d565b9050919050565b60006020820190506141be6000830184613ea3565b92915050565b600060c0820190506141d96000830189613ea3565b81810360208301526141eb8188613a65565b905081810360408301526141ff8187613a65565b905081810360608301526142138186613a65565b905061422260808301856139d2565b61422f60a0830184613a56565b979650505050505050565b6000604051905081810181811067ffffffffffffffff8211171561425d57600080fd5b8060405250919050565b600067ffffffffffffffff82111561427e57600080fd5b601f19601f8301169050602081019050919050565b6000819050602082019050919050565b600081519050919050565b600081519050919050565b600081519050919050565b6000602082019050919050565b600082825260208201905092915050565b600082825260208201905092915050565b600082825260208201905092915050565b600061430f82614322565b9050919050565b60008115159050919050565b600073ffffffffffffffffffffffffffffffffffffffff82169050919050565b6000819050919050565b82818337600083830152505050565b60005b8381101561437957808201518184015260208101905061435e565b83811115614388576000848401525b50505050565b6000601f19601f8301169050919050565b6143a881614304565b81146143b357600080fd5b50565b6143bf81614342565b81146143ca57600080fd5b5056fea365627a7a72315820d0163162da47cd7557ff579a0311e45c514462b958f21dcb396263f99e1851836c6578706572696d656e74616cf564736f6c63430005100040",
  "source": "pragma solidity >=0.4.22 <0.7.0;\r\npragma experimental ABIEncoderV2;\r\nimport \"./hospital.sol\";\r\n\r\ncontract Patient is Hospital {\r\n    uint256 public pindex = 0;\r\n\r\n    struct Records {\r\n        string hname;\r\n        string reason;\r\n        string admittedOn;\r\n        string disChargedOn;\r\n        string ipfs;\r\n    }\r\n\r\n    struct patient {\r\n        uint256 id;\r\n        string name;\r\n        string phone;\r\n        string gender;\r\n        string dob;\r\n        string bloodgroup;\r\n        string allergies;\r\n        Records[] records;\r\n        address addr;\r\n    }\r\n    address[] private patientList;\r\n    mapping(address => mapping(address => bool)) isAuth;\r\n    mapping(address => patient) patients;\r\n    mapping(address => bool) isPatient;\r\n\r\n    function addRecord(\r\n        address _addr,\r\n        string memory _hname,\r\n        string memory _reason,\r\n        string memory _admittedOn,\r\n        string memory _dischargedOn,\r\n        string memory _ipfs\r\n    ) public {\r\n        require(isPatient[_addr], \"User not registered\");\r\n        require(isAuth[_addr][msg.sender], \"no permsiion\");\r\n        patients[_addr].records.push(\r\n            Records(_hname, _reason, _admittedOn, _dischargedOn, _ipfs)\r\n        );\r\n    }\r\n\r\n    function addPatient(\r\n        string memory _name,\r\n        string memory _phone,\r\n        string memory _gender,\r\n        string memory _dob,\r\n        string memory _bloodgroup,\r\n        string memory _allergies\r\n    ) public {\r\n        require(!isPatient[msg.sender], \"Already here\");\r\n        patientList.push(msg.sender);\r\n        pindex = pindex + 1;\r\n        isPatient[msg.sender] = true;\r\n        isAuth[msg.sender][msg.sender] = true;\r\n        patients[msg.sender].id = index;\r\n        patients[msg.sender].name = _name;\r\n        patients[msg.sender].phone = _phone;\r\n        patients[msg.sender].gender = _gender;\r\n        patients[msg.sender].dob = _dob;\r\n        patients[msg.sender].bloodgroup = _bloodgroup;\r\n        patients[msg.sender].allergies = _allergies;\r\n        patients[msg.sender].addr = msg.sender;\r\n    }\r\n\r\n    function getPatientDetails(address _addr)\r\n        public\r\n        view\r\n        returns (\r\n            string memory _name,\r\n            string memory _phone,\r\n            string memory _gender,\r\n            string memory _dob,\r\n            string memory _bloodgroup,\r\n            string memory _allergies\r\n        )\r\n    {\r\n        require(isAuth[_addr][msg.sender]);\r\n        require(isPatient[_addr]);\r\n        patient memory tmp = patients[_addr];\r\n        return (\r\n            tmp.name,\r\n            tmp.phone,\r\n            tmp.gender,\r\n            tmp.dob,\r\n            tmp.bloodgroup,\r\n            tmp.allergies\r\n        );\r\n    }\r\n\r\n    function getPatientRecords(address _addr)\r\n        public\r\n        view\r\n        returns (\r\n            string[] memory _hname,\r\n            string[] memory _reason,\r\n            string[] memory _admittedOn,\r\n            string[] memory _dischargedOn,\r\n            string[] memory ipfs\r\n        )\r\n    {\r\n        require(isAuth[_addr][msg.sender], \"No permsiion\");\r\n        require(isPatient[_addr], \"Not registered\");\r\n        require(patients[_addr].records.length > 0, \"No records\");\r\n        string[] memory hname = new string[](patients[_addr].records.length);\r\n        string[] memory Reason = new string[](patients[_addr].records.length);\r\n        string[] memory AdmOn = new string[](patients[_addr].records.length);\r\n        string[] memory disOn = new string[](patients[_addr].records.length);\r\n        string[] memory IPFS = new string[](patients[_addr].records.length);\r\n        for (uint256 i = 0; i < patients[_addr].records.length; i++) {\r\n            hname[i] = patients[_addr].records[i].hname;\r\n            Reason[i] = patients[_addr].records[i].reason;\r\n            AdmOn[i] = patients[_addr].records[i].admittedOn;\r\n            disOn[i] = patients[_addr].records[i].disChargedOn;\r\n            IPFS[i] = patients[_addr].records[i].ipfs;\r\n        }\r\n        return (hname, Reason, AdmOn, disOn, IPFS);\r\n    }\r\n\r\n    function addAuth(address _addr) public returns (bool success) {\r\n        require(!isAuth[msg.sender][_addr], \"Already Authorised\");\r\n        require(msg.sender != _addr, \"Cant add yourself\");\r\n        isAuth[msg.sender][_addr] = true;\r\n        return true;\r\n    }\r\n\r\n    function revokeAuth(address _addr) public returns (bool success) {\r\n        require(msg.sender != _addr);\r\n        require(isAuth[msg.sender][_addr]);\r\n        isAuth[msg.sender][_addr] = false;\r\n        return true;\r\n    }\r\n\r\n    function addAuthFromTo(address _from, address _to)\r\n        public\r\n        returns (bool success)\r\n    {\r\n        require(!isAuth[_from][_to]);\r\n        require(_from != _to);\r\n        require(isAuth[_from][msg.sender]);\r\n        require(isPatient[_from]);\r\n        isAuth[_from][_to] = true;\r\n        return true;\r\n    }\r\n\r\n    function removeAuthFromTo(address _from, address _to)\r\n        public\r\n        returns (bool success)\r\n    {\r\n        require(isAuth[_from][_to]);\r\n        require(_from != _to);\r\n        require(isAuth[_from][msg.sender]);\r\n        require(isPatient[_from]);\r\n        isAuth[_from][_to] = false;\r\n        return true;\r\n    }\r\n}\r\n",
  "sourcePath": "G:\\GP\\Projects\\Medical Record\\contracts\\patient.sol",
  "compiler": {
    "name": "solc",
    "version": "0.5.16+commit.9c3226ce.Emscripten.clang"
  },
  "schemaVersion": "3.4.3",
  "updatedAt": "2021-09-14T12:24:25.332Z",
  "networkType": "ethereum",
  "devdoc": {
    "methods": {}
  },
  "userdoc": {
    "methods": {}
  }
}